{
	"schemaVersion": "2.0.0",
	"contractName": "RDXToken",
	"compilerOutput": {
		"abi": [
			{
				"constant": true,
				"inputs": [],
				"name": "name",
				"outputs": [
					{
						"name": "",
						"type": "string"
					}
				],
				"payable": false,
				"stateMutability": "view",
				"type": "function"
			},
			{
				"constant": false,
				"inputs": [
					{
						"name": "spender",
						"type": "address"
					},
					{
						"name": "value",
						"type": "uint256"
					}
				],
				"name": "approve",
				"outputs": [
					{
						"name": "",
						"type": "bool"
					}
				],
				"payable": false,
				"stateMutability": "nonpayable",
				"type": "function"
			},
			{
				"constant": true,
				"inputs": [],
				"name": "totalSupply",
				"outputs": [
					{
						"name": "",
						"type": "uint256"
					}
				],
				"payable": false,
				"stateMutability": "view",
				"type": "function"
			},
			{
				"constant": false,
				"inputs": [
					{
						"name": "from",
						"type": "address"
					},
					{
						"name": "to",
						"type": "address"
					},
					{
						"name": "value",
						"type": "uint256"
					}
				],
				"name": "transferFrom",
				"outputs": [
					{
						"name": "",
						"type": "bool"
					}
				],
				"payable": false,
				"stateMutability": "nonpayable",
				"type": "function"
			},
			{
				"constant": true,
				"inputs": [],
				"name": "decimals",
				"outputs": [
					{
						"name": "",
						"type": "uint8"
					}
				],
				"payable": false,
				"stateMutability": "view",
				"type": "function"
			},
			{
				"constant": false,
				"inputs": [
					{
						"name": "spender",
						"type": "address"
					},
					{
						"name": "value",
						"type": "uint256"
					}
				],
				"name": "increaseAllowance",
				"outputs": [
					{
						"name": "",
						"type": "bool"
					}
				],
				"payable": false,
				"stateMutability": "nonpayable",
				"type": "function"
			},
			{
				"constant": true,
				"inputs": [
					{
						"name": "positionId",
						"type": "bytes32"
					}
				],
				"name": "getPositionInfo",
				"outputs": [
					{
						"name": "baseToken",
						"type": "address"
					},
					{
						"name": "quoteToken",
						"type": "address"
					},
					{
						"name": "makerAddress",
						"type": "address"
					},
					{
						"name": "takerAddress",
						"type": "address"
					},
					{
						"name": "tradeType",
						"type": "uint8"
					},
					{
						"name": "amount",
						"type": "int256"
					},
					{
						"name": "margin",
						"type": "uint256"
					},
					{
						"name": "openPrice",
						"type": "uint256"
					},
					{
						"name": "closePrice",
						"type": "uint256"
					},
					{
						"name": "filled",
						"type": "uint256"
					},
					{
						"name": "timestamp",
						"type": "uint256"
					},
					{
						"name": "state",
						"type": "uint8"
					}
				],
				"payable": false,
				"stateMutability": "view",
				"type": "function"
			},
			{
				"constant": true,
				"inputs": [
					{
						"name": "owner",
						"type": "address"
					}
				],
				"name": "balanceOf",
				"outputs": [
					{
						"name": "",
						"type": "uint256"
					}
				],
				"payable": false,
				"stateMutability": "view",
				"type": "function"
			},
			{
				"constant": true,
				"inputs": [],
				"name": "symbol",
				"outputs": [
					{
						"name": "",
						"type": "string"
					}
				],
				"payable": false,
				"stateMutability": "view",
				"type": "function"
			},
			{
				"constant": false,
				"inputs": [
					{
						"name": "spender",
						"type": "address"
					},
					{
						"name": "value",
						"type": "uint256"
					}
				],
				"name": "decreaseAllowance",
				"outputs": [
					{
						"name": "",
						"type": "bool"
					}
				],
				"payable": false,
				"stateMutability": "nonpayable",
				"type": "function"
			},
			{
				"constant": false,
				"inputs": [
					{
						"name": "to",
						"type": "address"
					},
					{
						"name": "value",
						"type": "uint256"
					}
				],
				"name": "transfer",
				"outputs": [
					{
						"name": "",
						"type": "bool"
					}
				],
				"payable": false,
				"stateMutability": "nonpayable",
				"type": "function"
			},
			{
				"constant": true,
				"inputs": [
					{
						"name": "owner",
						"type": "address"
					},
					{
						"name": "spender",
						"type": "address"
					}
				],
				"name": "allowance",
				"outputs": [
					{
						"name": "",
						"type": "uint256"
					}
				],
				"payable": false,
				"stateMutability": "view",
				"type": "function"
			},
			{
				"constant": false,
				"inputs": [
					{
						"name": "makerAssetData",
						"type": "bytes"
					},
					{
						"name": "takerAssetData",
						"type": "bytes"
					},
					{
						"name": "dexData",
						"type": "bytes"
					}
				],
				"name": "peddle",
				"outputs": [
					{
						"name": "",
						"type": "bool"
					}
				],
				"payable": false,
				"stateMutability": "nonpayable",
				"type": "function"
			},
			{
				"anonymous": false,
				"inputs": [
					{
						"indexed": false,
						"name": "positionId",
						"type": "bytes32"
					},
					{
						"indexed": false,
						"name": "baseToken",
						"type": "address"
					},
					{
						"indexed": false,
						"name": "quoteToken",
						"type": "address"
					},
					{
						"indexed": true,
						"name": "makerAddress",
						"type": "address"
					},
					{
						"indexed": true,
						"name": "takerAddress",
						"type": "address"
					},
					{
						"indexed": true,
						"name": "tradeType",
						"type": "uint8"
					},
					{
						"indexed": false,
						"name": "amount",
						"type": "int256"
					},
					{
						"indexed": false,
						"name": "margin",
						"type": "uint256"
					},
					{
						"indexed": false,
						"name": "openPrice",
						"type": "uint256"
					},
					{
						"indexed": false,
						"name": "closePrice",
						"type": "uint256"
					}
				],
				"name": "PositionOpened",
				"type": "event"
			},
			{
				"anonymous": false,
				"inputs": [
					{
						"indexed": false,
						"name": "positionId",
						"type": "bytes32"
					},
					{
						"indexed": true,
						"name": "from",
						"type": "address"
					},
					{
						"indexed": true,
						"name": "to",
						"type": "address"
					},
					{
						"indexed": false,
						"name": "amount",
						"type": "int256"
					}
				],
				"name": "PositionClosed",
				"type": "event"
			},
			{
				"anonymous": false,
				"inputs": [
					{
						"indexed": true,
						"name": "from",
						"type": "address"
					},
					{
						"indexed": true,
						"name": "to",
						"type": "address"
					},
					{
						"indexed": false,
						"name": "value",
						"type": "uint256"
					}
				],
				"name": "Transfer",
				"type": "event"
			},
			{
				"anonymous": false,
				"inputs": [
					{
						"indexed": true,
						"name": "owner",
						"type": "address"
					},
					{
						"indexed": true,
						"name": "spender",
						"type": "address"
					},
					{
						"indexed": false,
						"name": "value",
						"type": "uint256"
					}
				],
				"name": "Approval",
				"type": "event"
			}
		],
		"evm": {
			"bytecode": {
				"linkReferences": {},
				"object": "0x608060408181526b033b2e3c9fd0803ce800000060008181553380825260016020908152938220839055918452909290917fddf252ad1be2c89b69c2b068fc378daa952ba7f163c4a11628f55a4df523b3ef91a342621baf8001600655611e6c8061006b6000396000f3006080604052600436106100c45763ffffffff7c010000000000000000000000000000000000000000000000000000000060003504166306fdde0381146100c9578063095ea7b31461015357806318160ddd1461019857806323b872dd146101bf578063313ce567146101f657806339509351146102215780635f458e511461025257806370a082311461030957806395d89b4114610337578063a457c2d71461034c578063a9059cbb1461037d578063dd62ed3e146103ae578063f4970c90146103e2575b600080fd5b3480156100d557600080fd5b506100de61041a565b6040805160208082528351818301528351919283929083019185019080838360005b83811015610118578181015183820152602001610100565b50505050905090810190601f1680156101455780820380516001836020036101000a031916815260200191505b509250505060405180910390f35b34801561015f57600080fd5b5061018473ffffffffffffffffffffffffffffffffffffffff60043516602435610451565b604080519115158252519081900360200190f35b3480156101a457600080fd5b506101ad6104c4565b60408051918252519081900360200190f35b3480156101cb57600080fd5b5061018473ffffffffffffffffffffffffffffffffffffffff600435811690602435166044356104ca565b34801561020257600080fd5b5061020b6104ec565b6040805160ff9092168252519081900360200190f35b34801561022d57600080fd5b5061018473ffffffffffffffffffffffffffffffffffffffff600435166024356104f1565b34801561025e57600080fd5b5061026a600435610529565b6040805173ffffffffffffffffffffffffffffffffffffffff808f1682528d811660208301528c811692820192909252908a166060820152608081018960018111156102b257fe5b60ff1681526020018881526020018781526020018681526020018581526020018481526020018381526020018260038111156102ea57fe5b60ff1681526020019c5050505050505050505050505060405180910390f35b34801561031557600080fd5b506101ad73ffffffffffffffffffffffffffffffffffffffff600435166106ab565b34801561034357600080fd5b506100de6106d3565b34801561035857600080fd5b5061018473ffffffffffffffffffffffffffffffffffffffff6004351660243561070a565b34801561038957600080fd5b5061018473ffffffffffffffffffffffffffffffffffffffff60043516602435610739565b3480156103ba57600080fd5b506101ad73ffffffffffffffffffffffffffffffffffffffff60043581169060243516610746565b3480156103ee57600080fd5b50610184602460048035828101929082013591813580830192908201359160443591820191013561077e565b60408051808201909152601181527f30782050726f746f636f6c20546f6b656e000000000000000000000000000000602082015281565b33600081815260026020908152604080832073ffffffffffffffffffffffffffffffffffffffff8716808552908352818420869055815186815291519394909390927f8c5be1e5ebec7d5bd14f71427d1e84f3dd0314c0f7b2291e5b200ac8c7c3b925928290030190a350600192915050565b60005490565b60006104d7843384610b1f565b6104e2848484610c1c565b5060019392505050565b601281565b600073ffffffffffffffffffffffffffffffffffffffff8316151561051557600080fd5b610520338484610d31565b50600192915050565b600080600080600080600080600080600080610543611dd5565b60008e815260036020818152604092839020835161018081018552815473ffffffffffffffffffffffffffffffffffffffff90811682526001808401548216948301949094526002830154811695820195909552928101549384166060840152919260808401917401000000000000000000000000000000000000000090910460ff16908111156105d057fe5b60018111156105db57fe5b815260048201546020820152600582015460408201526006820154606082015260078201546080820152600882015460a0820152600982015460c0820152600a82015460e09091019060ff16600381111561063257fe5b600381111561063d57fe5b81525050905080600001519c5080602001519b5080604001519a5080606001519950806080015198508060a0015197508060c0015196508060e00151955080610100015194508061012001519350806101400151925080610160015191505091939597999b5091939597999b565b73ffffffffffffffffffffffffffffffffffffffff1660009081526001602052604090205490565b60408051808201909152600381527f5244580000000000000000000000000000000000000000000000000000000000602082015281565b600073ffffffffffffffffffffffffffffffffffffffff8316151561072e57600080fd5b610520338484610b1f565b6000610520338484610c1c565b73ffffffffffffffffffffffffffffffffffffffff918216600090815260026020908152604080832093909416825291909152205490565b6000610788611dd5565b610790611dd5565b6000806000806107cf8d8d8080601f01602080910402602001604051908101604052809392919081815260200183838082843750610d7b945050505050565b955061080a8b8b8080601f01602080910402602001604051908101604052809392919081815260200183838082843750610d7b945050505050565b945061081586611035565b935061082085611035565b925060009150818660800151600181111561083757fe5b141561084657855191506108d1565b60018660800151600181111561085857fe5b141561086a57856020015191506108d1565b604080517f08c379a000000000000000000000000000000000000000000000000000000000815260206004820152601b60248201527f504f534954494f4e5f54524144455f545950455f494e56414c49440000000000604482015290519081900360640190fd5b50600080856080015160018111156108e557fe5b14156108f357508351610912565b60018560800151600181111561090557fe5b141561086a575060208401515b61091b84611263565b15801561092e575061092c83611263565b155b156109ce57610947828760400151308960c00151611290565b61095b818660400151308860c00151611290565b61099186600001518760200151886040015189606001518a608001518b60a001518c60c001518d60e001518e6101000151611364565b506109c8856000015186602001518760400151886060015189608001518a60a001518b60c001518c60e001518d6101000151611364565b50610b0f565b6109d783611263565b1515610a71576109f1818660400151308860c00151611290565b610a27856000015186602001518760400151886060015189608001518a60a001518b60c001518c60e001518d6101000151611364565b50610a6c84876040015187604001518c8c8080601f01602080910402602001604051908101604052809392919081815260200183838082843750611905945050505050565b610b0f565b610a7a84611263565b1515610b0f57610a94828760400151308960c00151611290565b610aca86600001518760200151886040015189606001518a608001518b60a001518c60c001518d60e001518e6101000151611364565b50610b0f83866040015188604001518c8c8080601f01602080910402602001604051908101604052809392919081815260200183838082843750611905945050505050565b5050505050509695505050505050565b600081118015610b61575073ffffffffffffffffffffffffffffffffffffffff8084166000908152600260209081526040808320938616835292905220548111155b1515610b6c57600080fd5b73ffffffffffffffffffffffffffffffffffffffff808416600090815260026020908152604080832093861683529290522054610ba99082611b4b565b73ffffffffffffffffffffffffffffffffffffffff84811660008181526002602090815260408083209488168084529482529182902085905581519485529051929391927f8c5be1e5ebec7d5bd14f71427d1e84f3dd0314c0f7b2291e5b200ac8c7c3b9259281900390910190a3505050565b600081118015610c51575073ffffffffffffffffffffffffffffffffffffffff83166000908152600160205260409020548111155b1515610c5c57600080fd5b73ffffffffffffffffffffffffffffffffffffffff8316600090815260016020526040902054610c8c9082611b4b565b73ffffffffffffffffffffffffffffffffffffffff8085166000908152600160205260408082209390935590841681522054610cc89082611bc2565b73ffffffffffffffffffffffffffffffffffffffff80841660008181526001602090815260409182902094909455805185815290519193928716927fddf252ad1be2c89b69c2b068fc378daa952ba7f163c4a11628f55a4df523b3ef92918290030190a3505050565b60008111610d3e57600080fd5b73ffffffffffffffffffffffffffffffffffffffff808416600090815260026020908152604080832093861683529290522054610ba99082611bc2565b610d83611dd5565b6000806000806000806000806000808b51610140141515610e0557604080517f08c379a000000000000000000000000000000000000000000000000000000000815260206004820152601960248201527f494e56414c49445f41535345545f444154415f4c454e47544800000000000000604482015290519081900360640190fd5b610e168c600c63ffffffff611c3d16565b9950610e298c602e63ffffffff611c3d16565b9850610e3c8c604c63ffffffff611c3d16565b9750610e4f8c606c63ffffffff611c3d16565b965060007f0100000000000000000000000000000000000000000000000000000000000000028c609f815181101515610e8457fe5b9060200101517f010000000000000000000000000000000000000000000000000000000000000090047f0100000000000000000000000000000000000000000000000000000000000000027effffffffffffffffffffffffffffffffffffffffffffffffffffffffffffff191611610efd576000610f00565b60015b9550610f138c60a063ffffffff611cf916565b9450610f268c60c063ffffffff611d9f16565b9350610f398c60e063ffffffff611d9f16565b9250610f4d8c61010063ffffffff611d9f16565b9150610f618c61012063ffffffff611d9f16565b9050610180604051908101604052808b73ffffffffffffffffffffffffffffffffffffffff1681526020018a73ffffffffffffffffffffffffffffffffffffffff1681526020018973ffffffffffffffffffffffffffffffffffffffff1681526020018873ffffffffffffffffffffffffffffffffffffffff168152602001876001811115610fec57fe5b8152602001868152602001858152602001848152602001838152602001600081526020018281526020016000600381111561102357fe5b90529c9b505050505050505050505050565b60006060826000015183602001518460400151856060015186608001518760a00151886101400151604051602001808873ffffffffffffffffffffffffffffffffffffffff1673ffffffffffffffffffffffffffffffffffffffff166c010000000000000000000000000281526014018773ffffffffffffffffffffffffffffffffffffffff1673ffffffffffffffffffffffffffffffffffffffff166c010000000000000000000000000281526014018673ffffffffffffffffffffffffffffffffffffffff1673ffffffffffffffffffffffffffffffffffffffff166c010000000000000000000000000281526014018573ffffffffffffffffffffffffffffffffffffffff1673ffffffffffffffffffffffffffffffffffffffff166c0100000000000000000000000002815260140184600181111561117457fe5b60ff167f01000000000000000000000000000000000000000000000000000000000000000281526001018381526020018281526020019750505050505050506040516020818303038152906040529050806040518082805190602001908083835b6020831061121257805182527fffffffffffffffffffffffffffffffffffffffffffffffffffffffffffffffe090920191602091820191016111d5565b5181516020939093036101000a7fffffffffffffffffffffffffffffffffffffffffffffffffffffffffffffffff018019909116921691909117905260405192018290039091209695505050505050565b600060016000838152600360208190526040909120600a015460ff169081111561128957fe5b1492915050565b6040517f23b872dd0000000000000000000000000000000000000000000000000000000081528360048201528260248201528160448201526020816064836000895af160648201604052600082511160203d14163d15178116905080156112f357005b7f08c379a0000000000000000000000000000000000000000000000000000000006000527c20000000000000000000000000000000000000000000000000000000006020527c0f5452414e534645525f4641494c454400000000000000000000000000604052600060605260646000fd5b600061136e611dd5565b73ffffffffffffffffffffffffffffffffffffffff8b16158015906113a8575073ffffffffffffffffffffffffffffffffffffffff8a1615155b80156113e057508973ffffffffffffffffffffffffffffffffffffffff168b73ffffffffffffffffffffffffffffffffffffffff1614155b151561144d57604080517f08c379a000000000000000000000000000000000000000000000000000000000815260206004820152601d60248201527f45524332305f544f4b454e5f4144445245535345535f494e56414c4944000000604482015290519081900360640190fd5b73ffffffffffffffffffffffffffffffffffffffff891615801590611487575073ffffffffffffffffffffffffffffffffffffffff881615155b80156114bf57508773ffffffffffffffffffffffffffffffffffffffff168973ffffffffffffffffffffffffffffffffffffffff1614155b151561152c57604080517f08c379a000000000000000000000000000000000000000000000000000000000815260206004820152601860248201527f5452414445525f4144445245535345535f494e56414c49440000000000000000604482015290519081900360640190fd5b600087600181111561153a57fe5b14806115515750600187600181111561154f57fe5b145b15156115be57604080517f08c379a000000000000000000000000000000000000000000000000000000000815260206004820152601260248201527f54524144455f545950455f494e56414c49440000000000000000000000000000604482015290519081900360640190fd5b610180604051908101604052808c73ffffffffffffffffffffffffffffffffffffffff1681526020018b73ffffffffffffffffffffffffffffffffffffffff1681526020018a73ffffffffffffffffffffffffffffffffffffffff1681526020018973ffffffffffffffffffffffffffffffffffffffff16815260200188600181111561164757fe5b8152602001878152602001868152602001858152602001848152602001600081526020014281526020016001600381111561167e57fe5b9052905061168b81611035565b915061169682611263565b1561170257604080517f08c379a000000000000000000000000000000000000000000000000000000000815260206004820152601760248201527f504f534954494f4e5f414c52454144595f4f50454e4544000000000000000000604482015290519081900360640190fd5b600082815260036020818152604092839020845181547fffffffffffffffffffffffff000000000000000000000000000000000000000090811673ffffffffffffffffffffffffffffffffffffffff928316178355928601516001808401805486169284169290921790915594860151600283018054851691831691909117905560608601519382018054909316931692909217808255608085015185949092917fffffffffffffffffffffff00ffffffffffffffffffffffffffffffffffffffff1690740100000000000000000000000000000000000000009084908111156117e857fe5b021790555060a0820151600482015560c0820151600582015560e08201516006820155610100820151600782015561012082015160088201556101408201516009820155610160820151600a820180547fffffffffffffffffffffffffffffffffffffffffffffffffffffffffffffff0016600183600381111561186857fe5b021790555090505086600181111561187c57fe5b6040805184815273ffffffffffffffffffffffffffffffffffffffff8e811660208301528d811682840152606082018a90526080820189905260a0820188905260c082018790529151828c16928d16917f9081af4372fd7c22014980982f4c3a122105334ce30a7f809691cb380f8f8965919081900360e00190a4509998505050505050505050565b6000848152600360205260408120906001600a83015460ff16600381111561192957fe5b1461199557604080517f08c379a000000000000000000000000000000000000000000000000000000000815260206004820152601660248201527f504f534954494f4e5f49535f4e4f545f4f50454e454400000000000000000000604482015290519081900360640190fd5b73ffffffffffffffffffffffffffffffffffffffff8516158015906119cf575073ffffffffffffffffffffffffffffffffffffffff841615155b8015611a0757508373ffffffffffffffffffffffffffffffffffffffff168573ffffffffffffffffffffffffffffffffffffffff1614155b1515611a7457604080517f08c379a000000000000000000000000000000000000000000000000000000000815260206004820152601860248201527f5452414445525f4144445245535345535f494e56414c49440000000000000000604482015290519081900360640190fd5b611a7d83611dab565b90506000600383015474010000000000000000000000000000000000000000900460ff166001811115611aac57fe5b1415611ab757611aeb565b6001600383015474010000000000000000000000000000000000000000900460ff166001811115611ae457fe5b141561086a575b6040805187815260208101839052815173ffffffffffffffffffffffffffffffffffffffff80881693908916927fcd2ebf70bdf4dec83bc8bb4634d2077dd87b0a3aa452e45d4599b9114a1960f6929081900390910190a3505050505050565b600082821115611bbc57604080517f08c379a000000000000000000000000000000000000000000000000000000000815260206004820152601160248201527f55494e543235365f554e444552464c4f57000000000000000000000000000000604482015290519081900360640190fd5b50900390565b600082820183811015611c3657604080517f08c379a000000000000000000000000000000000000000000000000000000000815260206004820152601060248201527f55494e543235365f4f564552464c4f5700000000000000000000000000000000604482015290519081900360640190fd5b9392505050565b600081601401835110151515611cda57604080517f08c379a000000000000000000000000000000000000000000000000000000000815260206004820152602660248201527f475245415445525f4f525f455155414c5f544f5f32305f4c454e4754485f524560448201527f5155495245440000000000000000000000000000000000000000000000000000606482015290519081900360840190fd5b50016014015173ffffffffffffffffffffffffffffffffffffffff1690565b600081602001835110151515611d9657604080517f08c379a000000000000000000000000000000000000000000000000000000000815260206004820152602660248201527f475245415445525f4f525f455155414c5f544f5f33325f4c454e4754485f524560448201527f5155495245440000000000000000000000000000000000000000000000000000606482015290519081900360840190fd5b50016020015190565b6000611c368383611cf9565b60006020825110611dcc57611dc782600063ffffffff611cf916565b611dcf565b60005b92915050565b604080516101808101825260008082526020820181905291810182905260608101829052906080820190815260200160008152602001600081526020016000815260200160008152602001600081526020016000815260200160006003811115611e3b57fe5b9052905600a165627a7a72305820c902b09356eac7eb625eea667b7be7f06a179a699d48385708c0b0130a4d9e900029",
				"opcodes": "PUSH1 0x80 PUSH1 0x40 DUP2 DUP2 MSTORE PUSH12 0x33B2E3C9FD0803CE8000000 PUSH1 0x0 DUP2 DUP2 SSTORE CALLER DUP1 DUP3 MSTORE PUSH1 0x1 PUSH1 0x20 SWAP1 DUP2 MSTORE SWAP4 DUP3 KECCAK256 DUP4 SWAP1 SSTORE SWAP2 DUP5 MSTORE SWAP1 SWAP3 SWAP1 SWAP2 PUSH32 0xDDF252AD1BE2C89B69C2B068FC378DAA952BA7F163C4A11628F55A4DF523B3EF SWAP2 LOG3 TIMESTAMP PUSH3 0x1BAF80 ADD PUSH1 0x6 SSTORE PUSH2 0x1E6C DUP1 PUSH2 0x6B PUSH1 0x0 CODECOPY PUSH1 0x0 RETURN STOP PUSH1 0x80 PUSH1 0x40 MSTORE PUSH1 0x4 CALLDATASIZE LT PUSH2 0xC4 JUMPI PUSH4 0xFFFFFFFF PUSH29 0x100000000000000000000000000000000000000000000000000000000 PUSH1 0x0 CALLDATALOAD DIV AND PUSH4 0x6FDDE03 DUP2 EQ PUSH2 0xC9 JUMPI DUP1 PUSH4 0x95EA7B3 EQ PUSH2 0x153 JUMPI DUP1 PUSH4 0x18160DDD EQ PUSH2 0x198 JUMPI DUP1 PUSH4 0x23B872DD EQ PUSH2 0x1BF JUMPI DUP1 PUSH4 0x313CE567 EQ PUSH2 0x1F6 JUMPI DUP1 PUSH4 0x39509351 EQ PUSH2 0x221 JUMPI DUP1 PUSH4 0x5F458E51 EQ PUSH2 0x252 JUMPI DUP1 PUSH4 0x70A08231 EQ PUSH2 0x309 JUMPI DUP1 PUSH4 0x95D89B41 EQ PUSH2 0x337 JUMPI DUP1 PUSH4 0xA457C2D7 EQ PUSH2 0x34C JUMPI DUP1 PUSH4 0xA9059CBB EQ PUSH2 0x37D JUMPI DUP1 PUSH4 0xDD62ED3E EQ PUSH2 0x3AE JUMPI DUP1 PUSH4 0xF4970C90 EQ PUSH2 0x3E2 JUMPI JUMPDEST PUSH1 0x0 DUP1 REVERT JUMPDEST CALLVALUE DUP1 ISZERO PUSH2 0xD5 JUMPI PUSH1 0x0 DUP1 REVERT JUMPDEST POP PUSH2 0xDE PUSH2 0x41A JUMP JUMPDEST PUSH1 0x40 DUP1 MLOAD PUSH1 0x20 DUP1 DUP3 MSTORE DUP4 MLOAD DUP2 DUP4 ADD MSTORE DUP4 MLOAD SWAP2 SWAP3 DUP4 SWAP3 SWAP1 DUP4 ADD SWAP2 DUP6 ADD SWAP1 DUP1 DUP4 DUP4 PUSH1 0x0 JUMPDEST DUP4 DUP2 LT ISZERO PUSH2 0x118 JUMPI DUP2 DUP2 ADD MLOAD DUP4 DUP3 ADD MSTORE PUSH1 0x20 ADD PUSH2 0x100 JUMP JUMPDEST POP POP POP POP SWAP1 POP SWAP1 DUP2 ADD SWAP1 PUSH1 0x1F AND DUP1 ISZERO PUSH2 0x145 JUMPI DUP1 DUP3 SUB DUP1 MLOAD PUSH1 0x1 DUP4 PUSH1 0x20 SUB PUSH2 0x100 EXP SUB NOT AND DUP2 MSTORE PUSH1 0x20 ADD SWAP2 POP JUMPDEST POP SWAP3 POP POP POP PUSH1 0x40 MLOAD DUP1 SWAP2 SUB SWAP1 RETURN JUMPDEST CALLVALUE DUP1 ISZERO PUSH2 0x15F JUMPI PUSH1 0x0 DUP1 REVERT JUMPDEST POP PUSH2 0x184 PUSH20 0xFFFFFFFFFFFFFFFFFFFFFFFFFFFFFFFFFFFFFFFF PUSH1 0x4 CALLDATALOAD AND PUSH1 0x24 CALLDATALOAD PUSH2 0x451 JUMP JUMPDEST PUSH1 0x40 DUP1 MLOAD SWAP2 ISZERO ISZERO DUP3 MSTORE MLOAD SWAP1 DUP2 SWAP1 SUB PUSH1 0x20 ADD SWAP1 RETURN JUMPDEST CALLVALUE DUP1 ISZERO PUSH2 0x1A4 JUMPI PUSH1 0x0 DUP1 REVERT JUMPDEST POP PUSH2 0x1AD PUSH2 0x4C4 JUMP JUMPDEST PUSH1 0x40 DUP1 MLOAD SWAP2 DUP3 MSTORE MLOAD SWAP1 DUP2 SWAP1 SUB PUSH1 0x20 ADD SWAP1 RETURN JUMPDEST CALLVALUE DUP1 ISZERO PUSH2 0x1CB JUMPI PUSH1 0x0 DUP1 REVERT JUMPDEST POP PUSH2 0x184 PUSH20 0xFFFFFFFFFFFFFFFFFFFFFFFFFFFFFFFFFFFFFFFF PUSH1 0x4 CALLDATALOAD DUP2 AND SWAP1 PUSH1 0x24 CALLDATALOAD AND PUSH1 0x44 CALLDATALOAD PUSH2 0x4CA JUMP JUMPDEST CALLVALUE DUP1 ISZERO PUSH2 0x202 JUMPI PUSH1 0x0 DUP1 REVERT JUMPDEST POP PUSH2 0x20B PUSH2 0x4EC JUMP JUMPDEST PUSH1 0x40 DUP1 MLOAD PUSH1 0xFF SWAP1 SWAP3 AND DUP3 MSTORE MLOAD SWAP1 DUP2 SWAP1 SUB PUSH1 0x20 ADD SWAP1 RETURN JUMPDEST CALLVALUE DUP1 ISZERO PUSH2 0x22D JUMPI PUSH1 0x0 DUP1 REVERT JUMPDEST POP PUSH2 0x184 PUSH20 0xFFFFFFFFFFFFFFFFFFFFFFFFFFFFFFFFFFFFFFFF PUSH1 0x4 CALLDATALOAD AND PUSH1 0x24 CALLDATALOAD PUSH2 0x4F1 JUMP JUMPDEST CALLVALUE DUP1 ISZERO PUSH2 0x25E JUMPI PUSH1 0x0 DUP1 REVERT JUMPDEST POP PUSH2 0x26A PUSH1 0x4 CALLDATALOAD PUSH2 0x529 JUMP JUMPDEST PUSH1 0x40 DUP1 MLOAD PUSH20 0xFFFFFFFFFFFFFFFFFFFFFFFFFFFFFFFFFFFFFFFF DUP1 DUP16 AND DUP3 MSTORE DUP14 DUP2 AND PUSH1 0x20 DUP4 ADD MSTORE DUP13 DUP2 AND SWAP3 DUP3 ADD SWAP3 SWAP1 SWAP3 MSTORE SWAP1 DUP11 AND PUSH1 0x60 DUP3 ADD MSTORE PUSH1 0x80 DUP2 ADD DUP10 PUSH1 0x1 DUP2 GT ISZERO PUSH2 0x2B2 JUMPI INVALID JUMPDEST PUSH1 0xFF AND DUP2 MSTORE PUSH1 0x20 ADD DUP9 DUP2 MSTORE PUSH1 0x20 ADD DUP8 DUP2 MSTORE PUSH1 0x20 ADD DUP7 DUP2 MSTORE PUSH1 0x20 ADD DUP6 DUP2 MSTORE PUSH1 0x20 ADD DUP5 DUP2 MSTORE PUSH1 0x20 ADD DUP4 DUP2 MSTORE PUSH1 0x20 ADD DUP3 PUSH1 0x3 DUP2 GT ISZERO PUSH2 0x2EA JUMPI INVALID JUMPDEST PUSH1 0xFF AND DUP2 MSTORE PUSH1 0x20 ADD SWAP13 POP POP POP POP POP POP POP POP POP POP POP POP POP PUSH1 0x40 MLOAD DUP1 SWAP2 SUB SWAP1 RETURN JUMPDEST CALLVALUE DUP1 ISZERO PUSH2 0x315 JUMPI PUSH1 0x0 DUP1 REVERT JUMPDEST POP PUSH2 0x1AD PUSH20 0xFFFFFFFFFFFFFFFFFFFFFFFFFFFFFFFFFFFFFFFF PUSH1 0x4 CALLDATALOAD AND PUSH2 0x6AB JUMP JUMPDEST CALLVALUE DUP1 ISZERO PUSH2 0x343 JUMPI PUSH1 0x0 DUP1 REVERT JUMPDEST POP PUSH2 0xDE PUSH2 0x6D3 JUMP JUMPDEST CALLVALUE DUP1 ISZERO PUSH2 0x358 JUMPI PUSH1 0x0 DUP1 REVERT JUMPDEST POP PUSH2 0x184 PUSH20 0xFFFFFFFFFFFFFFFFFFFFFFFFFFFFFFFFFFFFFFFF PUSH1 0x4 CALLDATALOAD AND PUSH1 0x24 CALLDATALOAD PUSH2 0x70A JUMP JUMPDEST CALLVALUE DUP1 ISZERO PUSH2 0x389 JUMPI PUSH1 0x0 DUP1 REVERT JUMPDEST POP PUSH2 0x184 PUSH20 0xFFFFFFFFFFFFFFFFFFFFFFFFFFFFFFFFFFFFFFFF PUSH1 0x4 CALLDATALOAD AND PUSH1 0x24 CALLDATALOAD PUSH2 0x739 JUMP JUMPDEST CALLVALUE DUP1 ISZERO PUSH2 0x3BA JUMPI PUSH1 0x0 DUP1 REVERT JUMPDEST POP PUSH2 0x1AD PUSH20 0xFFFFFFFFFFFFFFFFFFFFFFFFFFFFFFFFFFFFFFFF PUSH1 0x4 CALLDATALOAD DUP2 AND SWAP1 PUSH1 0x24 CALLDATALOAD AND PUSH2 0x746 JUMP JUMPDEST CALLVALUE DUP1 ISZERO PUSH2 0x3EE JUMPI PUSH1 0x0 DUP1 REVERT JUMPDEST POP PUSH2 0x184 PUSH1 0x24 PUSH1 0x4 DUP1 CALLDATALOAD DUP3 DUP2 ADD SWAP3 SWAP1 DUP3 ADD CALLDATALOAD SWAP2 DUP2 CALLDATALOAD DUP1 DUP4 ADD SWAP3 SWAP1 DUP3 ADD CALLDATALOAD SWAP2 PUSH1 0x44 CALLDATALOAD SWAP2 DUP3 ADD SWAP2 ADD CALLDATALOAD PUSH2 0x77E JUMP JUMPDEST PUSH1 0x40 DUP1 MLOAD DUP1 DUP3 ADD SWAP1 SWAP2 MSTORE PUSH1 0x11 DUP2 MSTORE PUSH32 0x30782050726F746F636F6C20546F6B656E000000000000000000000000000000 PUSH1 0x20 DUP3 ADD MSTORE DUP2 JUMP JUMPDEST CALLER PUSH1 0x0 DUP2 DUP2 MSTORE PUSH1 0x2 PUSH1 0x20 SWAP1 DUP2 MSTORE PUSH1 0x40 DUP1 DUP4 KECCAK256 PUSH20 0xFFFFFFFFFFFFFFFFFFFFFFFFFFFFFFFFFFFFFFFF DUP8 AND DUP1 DUP6 MSTORE SWAP1 DUP4 MSTORE DUP2 DUP5 KECCAK256 DUP7 SWAP1 SSTORE DUP2 MLOAD DUP7 DUP2 MSTORE SWAP2 MLOAD SWAP4 SWAP5 SWAP1 SWAP4 SWAP1 SWAP3 PUSH32 0x8C5BE1E5EBEC7D5BD14F71427D1E84F3DD0314C0F7B2291E5B200AC8C7C3B925 SWAP3 DUP3 SWAP1 SUB ADD SWAP1 LOG3 POP PUSH1 0x1 SWAP3 SWAP2 POP POP JUMP JUMPDEST PUSH1 0x0 SLOAD SWAP1 JUMP JUMPDEST PUSH1 0x0 PUSH2 0x4D7 DUP5 CALLER DUP5 PUSH2 0xB1F JUMP JUMPDEST PUSH2 0x4E2 DUP5 DUP5 DUP5 PUSH2 0xC1C JUMP JUMPDEST POP PUSH1 0x1 SWAP4 SWAP3 POP POP POP JUMP JUMPDEST PUSH1 0x12 DUP2 JUMP JUMPDEST PUSH1 0x0 PUSH20 0xFFFFFFFFFFFFFFFFFFFFFFFFFFFFFFFFFFFFFFFF DUP4 AND ISZERO ISZERO PUSH2 0x515 JUMPI PUSH1 0x0 DUP1 REVERT JUMPDEST PUSH2 0x520 CALLER DUP5 DUP5 PUSH2 0xD31 JUMP JUMPDEST POP PUSH1 0x1 SWAP3 SWAP2 POP POP JUMP JUMPDEST PUSH1 0x0 DUP1 PUSH1 0x0 DUP1 PUSH1 0x0 DUP1 PUSH1 0x0 DUP1 PUSH1 0x0 DUP1 PUSH1 0x0 DUP1 PUSH2 0x543 PUSH2 0x1DD5 JUMP JUMPDEST PUSH1 0x0 DUP15 DUP2 MSTORE PUSH1 0x3 PUSH1 0x20 DUP2 DUP2 MSTORE PUSH1 0x40 SWAP3 DUP4 SWAP1 KECCAK256 DUP4 MLOAD PUSH2 0x180 DUP2 ADD DUP6 MSTORE DUP2 SLOAD PUSH20 0xFFFFFFFFFFFFFFFFFFFFFFFFFFFFFFFFFFFFFFFF SWAP1 DUP2 AND DUP3 MSTORE PUSH1 0x1 DUP1 DUP5 ADD SLOAD DUP3 AND SWAP5 DUP4 ADD SWAP5 SWAP1 SWAP5 MSTORE PUSH1 0x2 DUP4 ADD SLOAD DUP2 AND SWAP6 DUP3 ADD SWAP6 SWAP1 SWAP6 MSTORE SWAP3 DUP2 ADD SLOAD SWAP4 DUP5 AND PUSH1 0x60 DUP5 ADD MSTORE SWAP2 SWAP3 PUSH1 0x80 DUP5 ADD SWAP2 PUSH21 0x10000000000000000000000000000000000000000 SWAP1 SWAP2 DIV PUSH1 0xFF AND SWAP1 DUP2 GT ISZERO PUSH2 0x5D0 JUMPI INVALID JUMPDEST PUSH1 0x1 DUP2 GT ISZERO PUSH2 0x5DB JUMPI INVALID JUMPDEST DUP2 MSTORE PUSH1 0x4 DUP3 ADD SLOAD PUSH1 0x20 DUP3 ADD MSTORE PUSH1 0x5 DUP3 ADD SLOAD PUSH1 0x40 DUP3 ADD MSTORE PUSH1 0x6 DUP3 ADD SLOAD PUSH1 0x60 DUP3 ADD MSTORE PUSH1 0x7 DUP3 ADD SLOAD PUSH1 0x80 DUP3 ADD MSTORE PUSH1 0x8 DUP3 ADD SLOAD PUSH1 0xA0 DUP3 ADD MSTORE PUSH1 0x9 DUP3 ADD SLOAD PUSH1 0xC0 DUP3 ADD MSTORE PUSH1 0xA DUP3 ADD SLOAD PUSH1 0xE0 SWAP1 SWAP2 ADD SWAP1 PUSH1 0xFF AND PUSH1 0x3 DUP2 GT ISZERO PUSH2 0x632 JUMPI INVALID JUMPDEST PUSH1 0x3 DUP2 GT ISZERO PUSH2 0x63D JUMPI INVALID JUMPDEST DUP2 MSTORE POP POP SWAP1 POP DUP1 PUSH1 0x0 ADD MLOAD SWAP13 POP DUP1 PUSH1 0x20 ADD MLOAD SWAP12 POP DUP1 PUSH1 0x40 ADD MLOAD SWAP11 POP DUP1 PUSH1 0x60 ADD MLOAD SWAP10 POP DUP1 PUSH1 0x80 ADD MLOAD SWAP9 POP DUP1 PUSH1 0xA0 ADD MLOAD SWAP8 POP DUP1 PUSH1 0xC0 ADD MLOAD SWAP7 POP DUP1 PUSH1 0xE0 ADD MLOAD SWAP6 POP DUP1 PUSH2 0x100 ADD MLOAD SWAP5 POP DUP1 PUSH2 0x120 ADD MLOAD SWAP4 POP DUP1 PUSH2 0x140 ADD MLOAD SWAP3 POP DUP1 PUSH2 0x160 ADD MLOAD SWAP2 POP POP SWAP2 SWAP4 SWAP6 SWAP8 SWAP10 SWAP12 POP SWAP2 SWAP4 SWAP6 SWAP8 SWAP10 SWAP12 JUMP JUMPDEST PUSH20 0xFFFFFFFFFFFFFFFFFFFFFFFFFFFFFFFFFFFFFFFF AND PUSH1 0x0 SWAP1 DUP2 MSTORE PUSH1 0x1 PUSH1 0x20 MSTORE PUSH1 0x40 SWAP1 KECCAK256 SLOAD SWAP1 JUMP JUMPDEST PUSH1 0x40 DUP1 MLOAD DUP1 DUP3 ADD SWAP1 SWAP2 MSTORE PUSH1 0x3 DUP2 MSTORE PUSH32 0x5244580000000000000000000000000000000000000000000000000000000000 PUSH1 0x20 DUP3 ADD MSTORE DUP2 JUMP JUMPDEST PUSH1 0x0 PUSH20 0xFFFFFFFFFFFFFFFFFFFFFFFFFFFFFFFFFFFFFFFF DUP4 AND ISZERO ISZERO PUSH2 0x72E JUMPI PUSH1 0x0 DUP1 REVERT JUMPDEST PUSH2 0x520 CALLER DUP5 DUP5 PUSH2 0xB1F JUMP JUMPDEST PUSH1 0x0 PUSH2 0x520 CALLER DUP5 DUP5 PUSH2 0xC1C JUMP JUMPDEST PUSH20 0xFFFFFFFFFFFFFFFFFFFFFFFFFFFFFFFFFFFFFFFF SWAP2 DUP3 AND PUSH1 0x0 SWAP1 DUP2 MSTORE PUSH1 0x2 PUSH1 0x20 SWAP1 DUP2 MSTORE PUSH1 0x40 DUP1 DUP4 KECCAK256 SWAP4 SWAP1 SWAP5 AND DUP3 MSTORE SWAP2 SWAP1 SWAP2 MSTORE KECCAK256 SLOAD SWAP1 JUMP JUMPDEST PUSH1 0x0 PUSH2 0x788 PUSH2 0x1DD5 JUMP JUMPDEST PUSH2 0x790 PUSH2 0x1DD5 JUMP JUMPDEST PUSH1 0x0 DUP1 PUSH1 0x0 DUP1 PUSH2 0x7CF DUP14 DUP14 DUP1 DUP1 PUSH1 0x1F ADD PUSH1 0x20 DUP1 SWAP2 DIV MUL PUSH1 0x20 ADD PUSH1 0x40 MLOAD SWAP1 DUP2 ADD PUSH1 0x40 MSTORE DUP1 SWAP4 SWAP3 SWAP2 SWAP1 DUP2 DUP2 MSTORE PUSH1 0x20 ADD DUP4 DUP4 DUP1 DUP3 DUP5 CALLDATACOPY POP PUSH2 0xD7B SWAP5 POP POP POP POP POP JUMP JUMPDEST SWAP6 POP PUSH2 0x80A DUP12 DUP12 DUP1 DUP1 PUSH1 0x1F ADD PUSH1 0x20 DUP1 SWAP2 DIV MUL PUSH1 0x20 ADD PUSH1 0x40 MLOAD SWAP1 DUP2 ADD PUSH1 0x40 MSTORE DUP1 SWAP4 SWAP3 SWAP2 SWAP1 DUP2 DUP2 MSTORE PUSH1 0x20 ADD DUP4 DUP4 DUP1 DUP3 DUP5 CALLDATACOPY POP PUSH2 0xD7B SWAP5 POP POP POP POP POP JUMP JUMPDEST SWAP5 POP PUSH2 0x815 DUP7 PUSH2 0x1035 JUMP JUMPDEST SWAP4 POP PUSH2 0x820 DUP6 PUSH2 0x1035 JUMP JUMPDEST SWAP3 POP PUSH1 0x0 SWAP2 POP DUP2 DUP7 PUSH1 0x80 ADD MLOAD PUSH1 0x1 DUP2 GT ISZERO PUSH2 0x837 JUMPI INVALID JUMPDEST EQ ISZERO PUSH2 0x846 JUMPI DUP6 MLOAD SWAP2 POP PUSH2 0x8D1 JUMP JUMPDEST PUSH1 0x1 DUP7 PUSH1 0x80 ADD MLOAD PUSH1 0x1 DUP2 GT ISZERO PUSH2 0x858 JUMPI INVALID JUMPDEST EQ ISZERO PUSH2 0x86A JUMPI DUP6 PUSH1 0x20 ADD MLOAD SWAP2 POP PUSH2 0x8D1 JUMP JUMPDEST PUSH1 0x40 DUP1 MLOAD PUSH32 0x8C379A000000000000000000000000000000000000000000000000000000000 DUP2 MSTORE PUSH1 0x20 PUSH1 0x4 DUP3 ADD MSTORE PUSH1 0x1B PUSH1 0x24 DUP3 ADD MSTORE PUSH32 0x504F534954494F4E5F54524144455F545950455F494E56414C49440000000000 PUSH1 0x44 DUP3 ADD MSTORE SWAP1 MLOAD SWAP1 DUP2 SWAP1 SUB PUSH1 0x64 ADD SWAP1 REVERT JUMPDEST POP PUSH1 0x0 DUP1 DUP6 PUSH1 0x80 ADD MLOAD PUSH1 0x1 DUP2 GT ISZERO PUSH2 0x8E5 JUMPI INVALID JUMPDEST EQ ISZERO PUSH2 0x8F3 JUMPI POP DUP4 MLOAD PUSH2 0x912 JUMP JUMPDEST PUSH1 0x1 DUP6 PUSH1 0x80 ADD MLOAD PUSH1 0x1 DUP2 GT ISZERO PUSH2 0x905 JUMPI INVALID JUMPDEST EQ ISZERO PUSH2 0x86A JUMPI POP PUSH1 0x20 DUP5 ADD MLOAD JUMPDEST PUSH2 0x91B DUP5 PUSH2 0x1263 JUMP JUMPDEST ISZERO DUP1 ISZERO PUSH2 0x92E JUMPI POP PUSH2 0x92C DUP4 PUSH2 0x1263 JUMP JUMPDEST ISZERO JUMPDEST ISZERO PUSH2 0x9CE JUMPI PUSH2 0x947 DUP3 DUP8 PUSH1 0x40 ADD MLOAD ADDRESS DUP10 PUSH1 0xC0 ADD MLOAD PUSH2 0x1290 JUMP JUMPDEST PUSH2 0x95B DUP2 DUP7 PUSH1 0x40 ADD MLOAD ADDRESS DUP9 PUSH1 0xC0 ADD MLOAD PUSH2 0x1290 JUMP JUMPDEST PUSH2 0x991 DUP7 PUSH1 0x0 ADD MLOAD DUP8 PUSH1 0x20 ADD MLOAD DUP9 PUSH1 0x40 ADD MLOAD DUP10 PUSH1 0x60 ADD MLOAD DUP11 PUSH1 0x80 ADD MLOAD DUP12 PUSH1 0xA0 ADD MLOAD DUP13 PUSH1 0xC0 ADD MLOAD DUP14 PUSH1 0xE0 ADD MLOAD DUP15 PUSH2 0x100 ADD MLOAD PUSH2 0x1364 JUMP JUMPDEST POP PUSH2 0x9C8 DUP6 PUSH1 0x0 ADD MLOAD DUP7 PUSH1 0x20 ADD MLOAD DUP8 PUSH1 0x40 ADD MLOAD DUP9 PUSH1 0x60 ADD MLOAD DUP10 PUSH1 0x80 ADD MLOAD DUP11 PUSH1 0xA0 ADD MLOAD DUP12 PUSH1 0xC0 ADD MLOAD DUP13 PUSH1 0xE0 ADD MLOAD DUP14 PUSH2 0x100 ADD MLOAD PUSH2 0x1364 JUMP JUMPDEST POP PUSH2 0xB0F JUMP JUMPDEST PUSH2 0x9D7 DUP4 PUSH2 0x1263 JUMP JUMPDEST ISZERO ISZERO PUSH2 0xA71 JUMPI PUSH2 0x9F1 DUP2 DUP7 PUSH1 0x40 ADD MLOAD ADDRESS DUP9 PUSH1 0xC0 ADD MLOAD PUSH2 0x1290 JUMP JUMPDEST PUSH2 0xA27 DUP6 PUSH1 0x0 ADD MLOAD DUP7 PUSH1 0x20 ADD MLOAD DUP8 PUSH1 0x40 ADD MLOAD DUP9 PUSH1 0x60 ADD MLOAD DUP10 PUSH1 0x80 ADD MLOAD DUP11 PUSH1 0xA0 ADD MLOAD DUP12 PUSH1 0xC0 ADD MLOAD DUP13 PUSH1 0xE0 ADD MLOAD DUP14 PUSH2 0x100 ADD MLOAD PUSH2 0x1364 JUMP JUMPDEST POP PUSH2 0xA6C DUP5 DUP8 PUSH1 0x40 ADD MLOAD DUP8 PUSH1 0x40 ADD MLOAD DUP13 DUP13 DUP1 DUP1 PUSH1 0x1F ADD PUSH1 0x20 DUP1 SWAP2 DIV MUL PUSH1 0x20 ADD PUSH1 0x40 MLOAD SWAP1 DUP2 ADD PUSH1 0x40 MSTORE DUP1 SWAP4 SWAP3 SWAP2 SWAP1 DUP2 DUP2 MSTORE PUSH1 0x20 ADD DUP4 DUP4 DUP1 DUP3 DUP5 CALLDATACOPY POP PUSH2 0x1905 SWAP5 POP POP POP POP POP JUMP JUMPDEST PUSH2 0xB0F JUMP JUMPDEST PUSH2 0xA7A DUP5 PUSH2 0x1263 JUMP JUMPDEST ISZERO ISZERO PUSH2 0xB0F JUMPI PUSH2 0xA94 DUP3 DUP8 PUSH1 0x40 ADD MLOAD ADDRESS DUP10 PUSH1 0xC0 ADD MLOAD PUSH2 0x1290 JUMP JUMPDEST PUSH2 0xACA DUP7 PUSH1 0x0 ADD MLOAD DUP8 PUSH1 0x20 ADD MLOAD DUP9 PUSH1 0x40 ADD MLOAD DUP10 PUSH1 0x60 ADD MLOAD DUP11 PUSH1 0x80 ADD MLOAD DUP12 PUSH1 0xA0 ADD MLOAD DUP13 PUSH1 0xC0 ADD MLOAD DUP14 PUSH1 0xE0 ADD MLOAD DUP15 PUSH2 0x100 ADD MLOAD PUSH2 0x1364 JUMP JUMPDEST POP PUSH2 0xB0F DUP4 DUP7 PUSH1 0x40 ADD MLOAD DUP9 PUSH1 0x40 ADD MLOAD DUP13 DUP13 DUP1 DUP1 PUSH1 0x1F ADD PUSH1 0x20 DUP1 SWAP2 DIV MUL PUSH1 0x20 ADD PUSH1 0x40 MLOAD SWAP1 DUP2 ADD PUSH1 0x40 MSTORE DUP1 SWAP4 SWAP3 SWAP2 SWAP1 DUP2 DUP2 MSTORE PUSH1 0x20 ADD DUP4 DUP4 DUP1 DUP3 DUP5 CALLDATACOPY POP PUSH2 0x1905 SWAP5 POP POP POP POP POP JUMP JUMPDEST POP POP POP POP POP POP SWAP7 SWAP6 POP POP POP POP POP POP JUMP JUMPDEST PUSH1 0x0 DUP2 GT DUP1 ISZERO PUSH2 0xB61 JUMPI POP PUSH20 0xFFFFFFFFFFFFFFFFFFFFFFFFFFFFFFFFFFFFFFFF DUP1 DUP5 AND PUSH1 0x0 SWAP1 DUP2 MSTORE PUSH1 0x2 PUSH1 0x20 SWAP1 DUP2 MSTORE PUSH1 0x40 DUP1 DUP4 KECCAK256 SWAP4 DUP7 AND DUP4 MSTORE SWAP3 SWAP1 MSTORE KECCAK256 SLOAD DUP2 GT ISZERO JUMPDEST ISZERO ISZERO PUSH2 0xB6C JUMPI PUSH1 0x0 DUP1 REVERT JUMPDEST PUSH20 0xFFFFFFFFFFFFFFFFFFFFFFFFFFFFFFFFFFFFFFFF DUP1 DUP5 AND PUSH1 0x0 SWAP1 DUP2 MSTORE PUSH1 0x2 PUSH1 0x20 SWAP1 DUP2 MSTORE PUSH1 0x40 DUP1 DUP4 KECCAK256 SWAP4 DUP7 AND DUP4 MSTORE SWAP3 SWAP1 MSTORE KECCAK256 SLOAD PUSH2 0xBA9 SWAP1 DUP3 PUSH2 0x1B4B JUMP JUMPDEST PUSH20 0xFFFFFFFFFFFFFFFFFFFFFFFFFFFFFFFFFFFFFFFF DUP5 DUP2 AND PUSH1 0x0 DUP2 DUP2 MSTORE PUSH1 0x2 PUSH1 0x20 SWAP1 DUP2 MSTORE PUSH1 0x40 DUP1 DUP4 KECCAK256 SWAP5 DUP9 AND DUP1 DUP5 MSTORE SWAP5 DUP3 MSTORE SWAP2 DUP3 SWAP1 KECCAK256 DUP6 SWAP1 SSTORE DUP2 MLOAD SWAP5 DUP6 MSTORE SWAP1 MLOAD SWAP3 SWAP4 SWAP2 SWAP3 PUSH32 0x8C5BE1E5EBEC7D5BD14F71427D1E84F3DD0314C0F7B2291E5B200AC8C7C3B925 SWAP3 DUP2 SWAP1 SUB SWAP1 SWAP2 ADD SWAP1 LOG3 POP POP POP JUMP JUMPDEST PUSH1 0x0 DUP2 GT DUP1 ISZERO PUSH2 0xC51 JUMPI POP PUSH20 0xFFFFFFFFFFFFFFFFFFFFFFFFFFFFFFFFFFFFFFFF DUP4 AND PUSH1 0x0 SWAP1 DUP2 MSTORE PUSH1 0x1 PUSH1 0x20 MSTORE PUSH1 0x40 SWAP1 KECCAK256 SLOAD DUP2 GT ISZERO JUMPDEST ISZERO ISZERO PUSH2 0xC5C JUMPI PUSH1 0x0 DUP1 REVERT JUMPDEST PUSH20 0xFFFFFFFFFFFFFFFFFFFFFFFFFFFFFFFFFFFFFFFF DUP4 AND PUSH1 0x0 SWAP1 DUP2 MSTORE PUSH1 0x1 PUSH1 0x20 MSTORE PUSH1 0x40 SWAP1 KECCAK256 SLOAD PUSH2 0xC8C SWAP1 DUP3 PUSH2 0x1B4B JUMP JUMPDEST PUSH20 0xFFFFFFFFFFFFFFFFFFFFFFFFFFFFFFFFFFFFFFFF DUP1 DUP6 AND PUSH1 0x0 SWAP1 DUP2 MSTORE PUSH1 0x1 PUSH1 0x20 MSTORE PUSH1 0x40 DUP1 DUP3 KECCAK256 SWAP4 SWAP1 SWAP4 SSTORE SWAP1 DUP5 AND DUP2 MSTORE KECCAK256 SLOAD PUSH2 0xCC8 SWAP1 DUP3 PUSH2 0x1BC2 JUMP JUMPDEST PUSH20 0xFFFFFFFFFFFFFFFFFFFFFFFFFFFFFFFFFFFFFFFF DUP1 DUP5 AND PUSH1 0x0 DUP2 DUP2 MSTORE PUSH1 0x1 PUSH1 0x20 SWAP1 DUP2 MSTORE PUSH1 0x40 SWAP2 DUP3 SWAP1 KECCAK256 SWAP5 SWAP1 SWAP5 SSTORE DUP1 MLOAD DUP6 DUP2 MSTORE SWAP1 MLOAD SWAP2 SWAP4 SWAP3 DUP8 AND SWAP3 PUSH32 0xDDF252AD1BE2C89B69C2B068FC378DAA952BA7F163C4A11628F55A4DF523B3EF SWAP3 SWAP2 DUP3 SWAP1 SUB ADD SWAP1 LOG3 POP POP POP JUMP JUMPDEST PUSH1 0x0 DUP2 GT PUSH2 0xD3E JUMPI PUSH1 0x0 DUP1 REVERT JUMPDEST PUSH20 0xFFFFFFFFFFFFFFFFFFFFFFFFFFFFFFFFFFFFFFFF DUP1 DUP5 AND PUSH1 0x0 SWAP1 DUP2 MSTORE PUSH1 0x2 PUSH1 0x20 SWAP1 DUP2 MSTORE PUSH1 0x40 DUP1 DUP4 KECCAK256 SWAP4 DUP7 AND DUP4 MSTORE SWAP3 SWAP1 MSTORE KECCAK256 SLOAD PUSH2 0xBA9 SWAP1 DUP3 PUSH2 0x1BC2 JUMP JUMPDEST PUSH2 0xD83 PUSH2 0x1DD5 JUMP JUMPDEST PUSH1 0x0 DUP1 PUSH1 0x0 DUP1 PUSH1 0x0 DUP1 PUSH1 0x0 DUP1 PUSH1 0x0 DUP1 DUP12 MLOAD PUSH2 0x140 EQ ISZERO ISZERO PUSH2 0xE05 JUMPI PUSH1 0x40 DUP1 MLOAD PUSH32 0x8C379A000000000000000000000000000000000000000000000000000000000 DUP2 MSTORE PUSH1 0x20 PUSH1 0x4 DUP3 ADD MSTORE PUSH1 0x19 PUSH1 0x24 DUP3 ADD MSTORE PUSH32 0x494E56414C49445F41535345545F444154415F4C454E47544800000000000000 PUSH1 0x44 DUP3 ADD MSTORE SWAP1 MLOAD SWAP1 DUP2 SWAP1 SUB PUSH1 0x64 ADD SWAP1 REVERT JUMPDEST PUSH2 0xE16 DUP13 PUSH1 0xC PUSH4 0xFFFFFFFF PUSH2 0x1C3D AND JUMP JUMPDEST SWAP10 POP PUSH2 0xE29 DUP13 PUSH1 0x2E PUSH4 0xFFFFFFFF PUSH2 0x1C3D AND JUMP JUMPDEST SWAP9 POP PUSH2 0xE3C DUP13 PUSH1 0x4C PUSH4 0xFFFFFFFF PUSH2 0x1C3D AND JUMP JUMPDEST SWAP8 POP PUSH2 0xE4F DUP13 PUSH1 0x6C PUSH4 0xFFFFFFFF PUSH2 0x1C3D AND JUMP JUMPDEST SWAP7 POP PUSH1 0x0 PUSH32 0x100000000000000000000000000000000000000000000000000000000000000 MUL DUP13 PUSH1 0x9F DUP2 MLOAD DUP2 LT ISZERO ISZERO PUSH2 0xE84 JUMPI INVALID JUMPDEST SWAP1 PUSH1 0x20 ADD ADD MLOAD PUSH32 0x100000000000000000000000000000000000000000000000000000000000000 SWAP1 DIV PUSH32 0x100000000000000000000000000000000000000000000000000000000000000 MUL PUSH31 0xFFFFFFFFFFFFFFFFFFFFFFFFFFFFFFFFFFFFFFFFFFFFFFFFFFFFFFFFFFFFFF NOT AND GT PUSH2 0xEFD JUMPI PUSH1 0x0 PUSH2 0xF00 JUMP JUMPDEST PUSH1 0x1 JUMPDEST SWAP6 POP PUSH2 0xF13 DUP13 PUSH1 0xA0 PUSH4 0xFFFFFFFF PUSH2 0x1CF9 AND JUMP JUMPDEST SWAP5 POP PUSH2 0xF26 DUP13 PUSH1 0xC0 PUSH4 0xFFFFFFFF PUSH2 0x1D9F AND JUMP JUMPDEST SWAP4 POP PUSH2 0xF39 DUP13 PUSH1 0xE0 PUSH4 0xFFFFFFFF PUSH2 0x1D9F AND JUMP JUMPDEST SWAP3 POP PUSH2 0xF4D DUP13 PUSH2 0x100 PUSH4 0xFFFFFFFF PUSH2 0x1D9F AND JUMP JUMPDEST SWAP2 POP PUSH2 0xF61 DUP13 PUSH2 0x120 PUSH4 0xFFFFFFFF PUSH2 0x1D9F AND JUMP JUMPDEST SWAP1 POP PUSH2 0x180 PUSH1 0x40 MLOAD SWAP1 DUP2 ADD PUSH1 0x40 MSTORE DUP1 DUP12 PUSH20 0xFFFFFFFFFFFFFFFFFFFFFFFFFFFFFFFFFFFFFFFF AND DUP2 MSTORE PUSH1 0x20 ADD DUP11 PUSH20 0xFFFFFFFFFFFFFFFFFFFFFFFFFFFFFFFFFFFFFFFF AND DUP2 MSTORE PUSH1 0x20 ADD DUP10 PUSH20 0xFFFFFFFFFFFFFFFFFFFFFFFFFFFFFFFFFFFFFFFF AND DUP2 MSTORE PUSH1 0x20 ADD DUP9 PUSH20 0xFFFFFFFFFFFFFFFFFFFFFFFFFFFFFFFFFFFFFFFF AND DUP2 MSTORE PUSH1 0x20 ADD DUP8 PUSH1 0x1 DUP2 GT ISZERO PUSH2 0xFEC JUMPI INVALID JUMPDEST DUP2 MSTORE PUSH1 0x20 ADD DUP7 DUP2 MSTORE PUSH1 0x20 ADD DUP6 DUP2 MSTORE PUSH1 0x20 ADD DUP5 DUP2 MSTORE PUSH1 0x20 ADD DUP4 DUP2 MSTORE PUSH1 0x20 ADD PUSH1 0x0 DUP2 MSTORE PUSH1 0x20 ADD DUP3 DUP2 MSTORE PUSH1 0x20 ADD PUSH1 0x0 PUSH1 0x3 DUP2 GT ISZERO PUSH2 0x1023 JUMPI INVALID JUMPDEST SWAP1 MSTORE SWAP13 SWAP12 POP POP POP POP POP POP POP POP POP POP POP POP JUMP JUMPDEST PUSH1 0x0 PUSH1 0x60 DUP3 PUSH1 0x0 ADD MLOAD DUP4 PUSH1 0x20 ADD MLOAD DUP5 PUSH1 0x40 ADD MLOAD DUP6 PUSH1 0x60 ADD MLOAD DUP7 PUSH1 0x80 ADD MLOAD DUP8 PUSH1 0xA0 ADD MLOAD DUP9 PUSH2 0x140 ADD MLOAD PUSH1 0x40 MLOAD PUSH1 0x20 ADD DUP1 DUP9 PUSH20 0xFFFFFFFFFFFFFFFFFFFFFFFFFFFFFFFFFFFFFFFF AND PUSH20 0xFFFFFFFFFFFFFFFFFFFFFFFFFFFFFFFFFFFFFFFF AND PUSH13 0x1000000000000000000000000 MUL DUP2 MSTORE PUSH1 0x14 ADD DUP8 PUSH20 0xFFFFFFFFFFFFFFFFFFFFFFFFFFFFFFFFFFFFFFFF AND PUSH20 0xFFFFFFFFFFFFFFFFFFFFFFFFFFFFFFFFFFFFFFFF AND PUSH13 0x1000000000000000000000000 MUL DUP2 MSTORE PUSH1 0x14 ADD DUP7 PUSH20 0xFFFFFFFFFFFFFFFFFFFFFFFFFFFFFFFFFFFFFFFF AND PUSH20 0xFFFFFFFFFFFFFFFFFFFFFFFFFFFFFFFFFFFFFFFF AND PUSH13 0x1000000000000000000000000 MUL DUP2 MSTORE PUSH1 0x14 ADD DUP6 PUSH20 0xFFFFFFFFFFFFFFFFFFFFFFFFFFFFFFFFFFFFFFFF AND PUSH20 0xFFFFFFFFFFFFFFFFFFFFFFFFFFFFFFFFFFFFFFFF AND PUSH13 0x1000000000000000000000000 MUL DUP2 MSTORE PUSH1 0x14 ADD DUP5 PUSH1 0x1 DUP2 GT ISZERO PUSH2 0x1174 JUMPI INVALID JUMPDEST PUSH1 0xFF AND PUSH32 0x100000000000000000000000000000000000000000000000000000000000000 MUL DUP2 MSTORE PUSH1 0x1 ADD DUP4 DUP2 MSTORE PUSH1 0x20 ADD DUP3 DUP2 MSTORE PUSH1 0x20 ADD SWAP8 POP POP POP POP POP POP POP POP PUSH1 0x40 MLOAD PUSH1 0x20 DUP2 DUP4 SUB SUB DUP2 MSTORE SWAP1 PUSH1 0x40 MSTORE SWAP1 POP DUP1 PUSH1 0x40 MLOAD DUP1 DUP3 DUP1 MLOAD SWAP1 PUSH1 0x20 ADD SWAP1 DUP1 DUP4 DUP4 JUMPDEST PUSH1 0x20 DUP4 LT PUSH2 0x1212 JUMPI DUP1 MLOAD DUP3 MSTORE PUSH32 0xFFFFFFFFFFFFFFFFFFFFFFFFFFFFFFFFFFFFFFFFFFFFFFFFFFFFFFFFFFFFFFE0 SWAP1 SWAP3 ADD SWAP2 PUSH1 0x20 SWAP2 DUP3 ADD SWAP2 ADD PUSH2 0x11D5 JUMP JUMPDEST MLOAD DUP2 MLOAD PUSH1 0x20 SWAP4 SWAP1 SWAP4 SUB PUSH2 0x100 EXP PUSH32 0xFFFFFFFFFFFFFFFFFFFFFFFFFFFFFFFFFFFFFFFFFFFFFFFFFFFFFFFFFFFFFFFF ADD DUP1 NOT SWAP1 SWAP2 AND SWAP3 AND SWAP2 SWAP1 SWAP2 OR SWAP1 MSTORE PUSH1 0x40 MLOAD SWAP3 ADD DUP3 SWAP1 SUB SWAP1 SWAP2 KECCAK256 SWAP7 SWAP6 POP POP POP POP POP POP JUMP JUMPDEST PUSH1 0x0 PUSH1 0x1 PUSH1 0x0 DUP4 DUP2 MSTORE PUSH1 0x3 PUSH1 0x20 DUP2 SWAP1 MSTORE PUSH1 0x40 SWAP1 SWAP2 KECCAK256 PUSH1 0xA ADD SLOAD PUSH1 0xFF AND SWAP1 DUP2 GT ISZERO PUSH2 0x1289 JUMPI INVALID JUMPDEST EQ SWAP3 SWAP2 POP POP JUMP JUMPDEST PUSH1 0x40 MLOAD PUSH32 0x23B872DD00000000000000000000000000000000000000000000000000000000 DUP2 MSTORE DUP4 PUSH1 0x4 DUP3 ADD MSTORE DUP3 PUSH1 0x24 DUP3 ADD MSTORE DUP2 PUSH1 0x44 DUP3 ADD MSTORE PUSH1 0x20 DUP2 PUSH1 0x64 DUP4 PUSH1 0x0 DUP10 GAS CALL PUSH1 0x64 DUP3 ADD PUSH1 0x40 MSTORE PUSH1 0x0 DUP3 MLOAD GT PUSH1 0x20 RETURNDATASIZE EQ AND RETURNDATASIZE ISZERO OR DUP2 AND SWAP1 POP DUP1 ISZERO PUSH2 0x12F3 JUMPI STOP JUMPDEST PUSH32 0x8C379A000000000000000000000000000000000000000000000000000000000 PUSH1 0x0 MSTORE PUSH29 0x2000000000000000000000000000000000000000000000000000000000 PUSH1 0x20 MSTORE PUSH29 0xF5452414E534645525F4641494C454400000000000000000000000000 PUSH1 0x40 MSTORE PUSH1 0x0 PUSH1 0x60 MSTORE PUSH1 0x64 PUSH1 0x0 REVERT JUMPDEST PUSH1 0x0 PUSH2 0x136E PUSH2 0x1DD5 JUMP JUMPDEST PUSH20 0xFFFFFFFFFFFFFFFFFFFFFFFFFFFFFFFFFFFFFFFF DUP12 AND ISZERO DUP1 ISZERO SWAP1 PUSH2 0x13A8 JUMPI POP PUSH20 0xFFFFFFFFFFFFFFFFFFFFFFFFFFFFFFFFFFFFFFFF DUP11 AND ISZERO ISZERO JUMPDEST DUP1 ISZERO PUSH2 0x13E0 JUMPI POP DUP10 PUSH20 0xFFFFFFFFFFFFFFFFFFFFFFFFFFFFFFFFFFFFFFFF AND DUP12 PUSH20 0xFFFFFFFFFFFFFFFFFFFFFFFFFFFFFFFFFFFFFFFF AND EQ ISZERO JUMPDEST ISZERO ISZERO PUSH2 0x144D JUMPI PUSH1 0x40 DUP1 MLOAD PUSH32 0x8C379A000000000000000000000000000000000000000000000000000000000 DUP2 MSTORE PUSH1 0x20 PUSH1 0x4 DUP3 ADD MSTORE PUSH1 0x1D PUSH1 0x24 DUP3 ADD MSTORE PUSH32 0x45524332305F544F4B454E5F4144445245535345535F494E56414C4944000000 PUSH1 0x44 DUP3 ADD MSTORE SWAP1 MLOAD SWAP1 DUP2 SWAP1 SUB PUSH1 0x64 ADD SWAP1 REVERT JUMPDEST PUSH20 0xFFFFFFFFFFFFFFFFFFFFFFFFFFFFFFFFFFFFFFFF DUP10 AND ISZERO DUP1 ISZERO SWAP1 PUSH2 0x1487 JUMPI POP PUSH20 0xFFFFFFFFFFFFFFFFFFFFFFFFFFFFFFFFFFFFFFFF DUP9 AND ISZERO ISZERO JUMPDEST DUP1 ISZERO PUSH2 0x14BF JUMPI POP DUP8 PUSH20 0xFFFFFFFFFFFFFFFFFFFFFFFFFFFFFFFFFFFFFFFF AND DUP10 PUSH20 0xFFFFFFFFFFFFFFFFFFFFFFFFFFFFFFFFFFFFFFFF AND EQ ISZERO JUMPDEST ISZERO ISZERO PUSH2 0x152C JUMPI PUSH1 0x40 DUP1 MLOAD PUSH32 0x8C379A000000000000000000000000000000000000000000000000000000000 DUP2 MSTORE PUSH1 0x20 PUSH1 0x4 DUP3 ADD MSTORE PUSH1 0x18 PUSH1 0x24 DUP3 ADD MSTORE PUSH32 0x5452414445525F4144445245535345535F494E56414C49440000000000000000 PUSH1 0x44 DUP3 ADD MSTORE SWAP1 MLOAD SWAP1 DUP2 SWAP1 SUB PUSH1 0x64 ADD SWAP1 REVERT JUMPDEST PUSH1 0x0 DUP8 PUSH1 0x1 DUP2 GT ISZERO PUSH2 0x153A JUMPI INVALID JUMPDEST EQ DUP1 PUSH2 0x1551 JUMPI POP PUSH1 0x1 DUP8 PUSH1 0x1 DUP2 GT ISZERO PUSH2 0x154F JUMPI INVALID JUMPDEST EQ JUMPDEST ISZERO ISZERO PUSH2 0x15BE JUMPI PUSH1 0x40 DUP1 MLOAD PUSH32 0x8C379A000000000000000000000000000000000000000000000000000000000 DUP2 MSTORE PUSH1 0x20 PUSH1 0x4 DUP3 ADD MSTORE PUSH1 0x12 PUSH1 0x24 DUP3 ADD MSTORE PUSH32 0x54524144455F545950455F494E56414C49440000000000000000000000000000 PUSH1 0x44 DUP3 ADD MSTORE SWAP1 MLOAD SWAP1 DUP2 SWAP1 SUB PUSH1 0x64 ADD SWAP1 REVERT JUMPDEST PUSH2 0x180 PUSH1 0x40 MLOAD SWAP1 DUP2 ADD PUSH1 0x40 MSTORE DUP1 DUP13 PUSH20 0xFFFFFFFFFFFFFFFFFFFFFFFFFFFFFFFFFFFFFFFF AND DUP2 MSTORE PUSH1 0x20 ADD DUP12 PUSH20 0xFFFFFFFFFFFFFFFFFFFFFFFFFFFFFFFFFFFFFFFF AND DUP2 MSTORE PUSH1 0x20 ADD DUP11 PUSH20 0xFFFFFFFFFFFFFFFFFFFFFFFFFFFFFFFFFFFFFFFF AND DUP2 MSTORE PUSH1 0x20 ADD DUP10 PUSH20 0xFFFFFFFFFFFFFFFFFFFFFFFFFFFFFFFFFFFFFFFF AND DUP2 MSTORE PUSH1 0x20 ADD DUP9 PUSH1 0x1 DUP2 GT ISZERO PUSH2 0x1647 JUMPI INVALID JUMPDEST DUP2 MSTORE PUSH1 0x20 ADD DUP8 DUP2 MSTORE PUSH1 0x20 ADD DUP7 DUP2 MSTORE PUSH1 0x20 ADD DUP6 DUP2 MSTORE PUSH1 0x20 ADD DUP5 DUP2 MSTORE PUSH1 0x20 ADD PUSH1 0x0 DUP2 MSTORE PUSH1 0x20 ADD TIMESTAMP DUP2 MSTORE PUSH1 0x20 ADD PUSH1 0x1 PUSH1 0x3 DUP2 GT ISZERO PUSH2 0x167E JUMPI INVALID JUMPDEST SWAP1 MSTORE SWAP1 POP PUSH2 0x168B DUP2 PUSH2 0x1035 JUMP JUMPDEST SWAP2 POP PUSH2 0x1696 DUP3 PUSH2 0x1263 JUMP JUMPDEST ISZERO PUSH2 0x1702 JUMPI PUSH1 0x40 DUP1 MLOAD PUSH32 0x8C379A000000000000000000000000000000000000000000000000000000000 DUP2 MSTORE PUSH1 0x20 PUSH1 0x4 DUP3 ADD MSTORE PUSH1 0x17 PUSH1 0x24 DUP3 ADD MSTORE PUSH32 0x504F534954494F4E5F414C52454144595F4F50454E4544000000000000000000 PUSH1 0x44 DUP3 ADD MSTORE SWAP1 MLOAD SWAP1 DUP2 SWAP1 SUB PUSH1 0x64 ADD SWAP1 REVERT JUMPDEST PUSH1 0x0 DUP3 DUP2 MSTORE PUSH1 0x3 PUSH1 0x20 DUP2 DUP2 MSTORE PUSH1 0x40 SWAP3 DUP4 SWAP1 KECCAK256 DUP5 MLOAD DUP2 SLOAD PUSH32 0xFFFFFFFFFFFFFFFFFFFFFFFF0000000000000000000000000000000000000000 SWAP1 DUP2 AND PUSH20 0xFFFFFFFFFFFFFFFFFFFFFFFFFFFFFFFFFFFFFFFF SWAP3 DUP4 AND OR DUP4 SSTORE SWAP3 DUP7 ADD MLOAD PUSH1 0x1 DUP1 DUP5 ADD DUP1 SLOAD DUP7 AND SWAP3 DUP5 AND SWAP3 SWAP1 SWAP3 OR SWAP1 SWAP2 SSTORE SWAP5 DUP7 ADD MLOAD PUSH1 0x2 DUP4 ADD DUP1 SLOAD DUP6 AND SWAP2 DUP4 AND SWAP2 SWAP1 SWAP2 OR SWAP1 SSTORE PUSH1 0x60 DUP7 ADD MLOAD SWAP4 DUP3 ADD DUP1 SLOAD SWAP1 SWAP4 AND SWAP4 AND SWAP3 SWAP1 SWAP3 OR DUP1 DUP3 SSTORE PUSH1 0x80 DUP6 ADD MLOAD DUP6 SWAP5 SWAP1 SWAP3 SWAP2 PUSH32 0xFFFFFFFFFFFFFFFFFFFFFF00FFFFFFFFFFFFFFFFFFFFFFFFFFFFFFFFFFFFFFFF AND SWAP1 PUSH21 0x10000000000000000000000000000000000000000 SWAP1 DUP5 SWAP1 DUP2 GT ISZERO PUSH2 0x17E8 JUMPI INVALID JUMPDEST MUL OR SWAP1 SSTORE POP PUSH1 0xA0 DUP3 ADD MLOAD PUSH1 0x4 DUP3 ADD SSTORE PUSH1 0xC0 DUP3 ADD MLOAD PUSH1 0x5 DUP3 ADD SSTORE PUSH1 0xE0 DUP3 ADD MLOAD PUSH1 0x6 DUP3 ADD SSTORE PUSH2 0x100 DUP3 ADD MLOAD PUSH1 0x7 DUP3 ADD SSTORE PUSH2 0x120 DUP3 ADD MLOAD PUSH1 0x8 DUP3 ADD SSTORE PUSH2 0x140 DUP3 ADD MLOAD PUSH1 0x9 DUP3 ADD SSTORE PUSH2 0x160 DUP3 ADD MLOAD PUSH1 0xA DUP3 ADD DUP1 SLOAD PUSH32 0xFFFFFFFFFFFFFFFFFFFFFFFFFFFFFFFFFFFFFFFFFFFFFFFFFFFFFFFFFFFFFF00 AND PUSH1 0x1 DUP4 PUSH1 0x3 DUP2 GT ISZERO PUSH2 0x1868 JUMPI INVALID JUMPDEST MUL OR SWAP1 SSTORE POP SWAP1 POP POP DUP7 PUSH1 0x1 DUP2 GT ISZERO PUSH2 0x187C JUMPI INVALID JUMPDEST PUSH1 0x40 DUP1 MLOAD DUP5 DUP2 MSTORE PUSH20 0xFFFFFFFFFFFFFFFFFFFFFFFFFFFFFFFFFFFFFFFF DUP15 DUP2 AND PUSH1 0x20 DUP4 ADD MSTORE DUP14 DUP2 AND DUP3 DUP5 ADD MSTORE PUSH1 0x60 DUP3 ADD DUP11 SWAP1 MSTORE PUSH1 0x80 DUP3 ADD DUP10 SWAP1 MSTORE PUSH1 0xA0 DUP3 ADD DUP9 SWAP1 MSTORE PUSH1 0xC0 DUP3 ADD DUP8 SWAP1 MSTORE SWAP2 MLOAD DUP3 DUP13 AND SWAP3 DUP14 AND SWAP2 PUSH32 0x9081AF4372FD7C22014980982F4C3A122105334CE30A7F809691CB380F8F8965 SWAP2 SWAP1 DUP2 SWAP1 SUB PUSH1 0xE0 ADD SWAP1 LOG4 POP SWAP10 SWAP9 POP POP POP POP POP POP POP POP POP JUMP JUMPDEST PUSH1 0x0 DUP5 DUP2 MSTORE PUSH1 0x3 PUSH1 0x20 MSTORE PUSH1 0x40 DUP2 KECCAK256 SWAP1 PUSH1 0x1 PUSH1 0xA DUP4 ADD SLOAD PUSH1 0xFF AND PUSH1 0x3 DUP2 GT ISZERO PUSH2 0x1929 JUMPI INVALID JUMPDEST EQ PUSH2 0x1995 JUMPI PUSH1 0x40 DUP1 MLOAD PUSH32 0x8C379A000000000000000000000000000000000000000000000000000000000 DUP2 MSTORE PUSH1 0x20 PUSH1 0x4 DUP3 ADD MSTORE PUSH1 0x16 PUSH1 0x24 DUP3 ADD MSTORE PUSH32 0x504F534954494F4E5F49535F4E4F545F4F50454E454400000000000000000000 PUSH1 0x44 DUP3 ADD MSTORE SWAP1 MLOAD SWAP1 DUP2 SWAP1 SUB PUSH1 0x64 ADD SWAP1 REVERT JUMPDEST PUSH20 0xFFFFFFFFFFFFFFFFFFFFFFFFFFFFFFFFFFFFFFFF DUP6 AND ISZERO DUP1 ISZERO SWAP1 PUSH2 0x19CF JUMPI POP PUSH20 0xFFFFFFFFFFFFFFFFFFFFFFFFFFFFFFFFFFFFFFFF DUP5 AND ISZERO ISZERO JUMPDEST DUP1 ISZERO PUSH2 0x1A07 JUMPI POP DUP4 PUSH20 0xFFFFFFFFFFFFFFFFFFFFFFFFFFFFFFFFFFFFFFFF AND DUP6 PUSH20 0xFFFFFFFFFFFFFFFFFFFFFFFFFFFFFFFFFFFFFFFF AND EQ ISZERO JUMPDEST ISZERO ISZERO PUSH2 0x1A74 JUMPI PUSH1 0x40 DUP1 MLOAD PUSH32 0x8C379A000000000000000000000000000000000000000000000000000000000 DUP2 MSTORE PUSH1 0x20 PUSH1 0x4 DUP3 ADD MSTORE PUSH1 0x18 PUSH1 0x24 DUP3 ADD MSTORE PUSH32 0x5452414445525F4144445245535345535F494E56414C49440000000000000000 PUSH1 0x44 DUP3 ADD MSTORE SWAP1 MLOAD SWAP1 DUP2 SWAP1 SUB PUSH1 0x64 ADD SWAP1 REVERT JUMPDEST PUSH2 0x1A7D DUP4 PUSH2 0x1DAB JUMP JUMPDEST SWAP1 POP PUSH1 0x0 PUSH1 0x3 DUP4 ADD SLOAD PUSH21 0x10000000000000000000000000000000000000000 SWAP1 DIV PUSH1 0xFF AND PUSH1 0x1 DUP2 GT ISZERO PUSH2 0x1AAC JUMPI INVALID JUMPDEST EQ ISZERO PUSH2 0x1AB7 JUMPI PUSH2 0x1AEB JUMP JUMPDEST PUSH1 0x1 PUSH1 0x3 DUP4 ADD SLOAD PUSH21 0x10000000000000000000000000000000000000000 SWAP1 DIV PUSH1 0xFF AND PUSH1 0x1 DUP2 GT ISZERO PUSH2 0x1AE4 JUMPI INVALID JUMPDEST EQ ISZERO PUSH2 0x86A JUMPI JUMPDEST PUSH1 0x40 DUP1 MLOAD DUP8 DUP2 MSTORE PUSH1 0x20 DUP2 ADD DUP4 SWAP1 MSTORE DUP2 MLOAD PUSH20 0xFFFFFFFFFFFFFFFFFFFFFFFFFFFFFFFFFFFFFFFF DUP1 DUP9 AND SWAP4 SWAP1 DUP10 AND SWAP3 PUSH32 0xCD2EBF70BDF4DEC83BC8BB4634D2077DD87B0A3AA452E45D4599B9114A1960F6 SWAP3 SWAP1 DUP2 SWAP1 SUB SWAP1 SWAP2 ADD SWAP1 LOG3 POP POP POP POP POP POP JUMP JUMPDEST PUSH1 0x0 DUP3 DUP3 GT ISZERO PUSH2 0x1BBC JUMPI PUSH1 0x40 DUP1 MLOAD PUSH32 0x8C379A000000000000000000000000000000000000000000000000000000000 DUP2 MSTORE PUSH1 0x20 PUSH1 0x4 DUP3 ADD MSTORE PUSH1 0x11 PUSH1 0x24 DUP3 ADD MSTORE PUSH32 0x55494E543235365F554E444552464C4F57000000000000000000000000000000 PUSH1 0x44 DUP3 ADD MSTORE SWAP1 MLOAD SWAP1 DUP2 SWAP1 SUB PUSH1 0x64 ADD SWAP1 REVERT JUMPDEST POP SWAP1 SUB SWAP1 JUMP JUMPDEST PUSH1 0x0 DUP3 DUP3 ADD DUP4 DUP2 LT ISZERO PUSH2 0x1C36 JUMPI PUSH1 0x40 DUP1 MLOAD PUSH32 0x8C379A000000000000000000000000000000000000000000000000000000000 DUP2 MSTORE PUSH1 0x20 PUSH1 0x4 DUP3 ADD MSTORE PUSH1 0x10 PUSH1 0x24 DUP3 ADD MSTORE PUSH32 0x55494E543235365F4F564552464C4F5700000000000000000000000000000000 PUSH1 0x44 DUP3 ADD MSTORE SWAP1 MLOAD SWAP1 DUP2 SWAP1 SUB PUSH1 0x64 ADD SWAP1 REVERT JUMPDEST SWAP4 SWAP3 POP POP POP JUMP JUMPDEST PUSH1 0x0 DUP2 PUSH1 0x14 ADD DUP4 MLOAD LT ISZERO ISZERO ISZERO PUSH2 0x1CDA JUMPI PUSH1 0x40 DUP1 MLOAD PUSH32 0x8C379A000000000000000000000000000000000000000000000000000000000 DUP2 MSTORE PUSH1 0x20 PUSH1 0x4 DUP3 ADD MSTORE PUSH1 0x26 PUSH1 0x24 DUP3 ADD MSTORE PUSH32 0x475245415445525F4F525F455155414C5F544F5F32305F4C454E4754485F5245 PUSH1 0x44 DUP3 ADD MSTORE PUSH32 0x5155495245440000000000000000000000000000000000000000000000000000 PUSH1 0x64 DUP3 ADD MSTORE SWAP1 MLOAD SWAP1 DUP2 SWAP1 SUB PUSH1 0x84 ADD SWAP1 REVERT JUMPDEST POP ADD PUSH1 0x14 ADD MLOAD PUSH20 0xFFFFFFFFFFFFFFFFFFFFFFFFFFFFFFFFFFFFFFFF AND SWAP1 JUMP JUMPDEST PUSH1 0x0 DUP2 PUSH1 0x20 ADD DUP4 MLOAD LT ISZERO ISZERO ISZERO PUSH2 0x1D96 JUMPI PUSH1 0x40 DUP1 MLOAD PUSH32 0x8C379A000000000000000000000000000000000000000000000000000000000 DUP2 MSTORE PUSH1 0x20 PUSH1 0x4 DUP3 ADD MSTORE PUSH1 0x26 PUSH1 0x24 DUP3 ADD MSTORE PUSH32 0x475245415445525F4F525F455155414C5F544F5F33325F4C454E4754485F5245 PUSH1 0x44 DUP3 ADD MSTORE PUSH32 0x5155495245440000000000000000000000000000000000000000000000000000 PUSH1 0x64 DUP3 ADD MSTORE SWAP1 MLOAD SWAP1 DUP2 SWAP1 SUB PUSH1 0x84 ADD SWAP1 REVERT JUMPDEST POP ADD PUSH1 0x20 ADD MLOAD SWAP1 JUMP JUMPDEST PUSH1 0x0 PUSH2 0x1C36 DUP4 DUP4 PUSH2 0x1CF9 JUMP JUMPDEST PUSH1 0x0 PUSH1 0x20 DUP3 MLOAD LT PUSH2 0x1DCC JUMPI PUSH2 0x1DC7 DUP3 PUSH1 0x0 PUSH4 0xFFFFFFFF PUSH2 0x1CF9 AND JUMP JUMPDEST PUSH2 0x1DCF JUMP JUMPDEST PUSH1 0x0 JUMPDEST SWAP3 SWAP2 POP POP JUMP JUMPDEST PUSH1 0x40 DUP1 MLOAD PUSH2 0x180 DUP2 ADD DUP3 MSTORE PUSH1 0x0 DUP1 DUP3 MSTORE PUSH1 0x20 DUP3 ADD DUP2 SWAP1 MSTORE SWAP2 DUP2 ADD DUP3 SWAP1 MSTORE PUSH1 0x60 DUP2 ADD DUP3 SWAP1 MSTORE SWAP1 PUSH1 0x80 DUP3 ADD SWAP1 DUP2 MSTORE PUSH1 0x20 ADD PUSH1 0x0 DUP2 MSTORE PUSH1 0x20 ADD PUSH1 0x0 DUP2 MSTORE PUSH1 0x20 ADD PUSH1 0x0 DUP2 MSTORE PUSH1 0x20 ADD PUSH1 0x0 DUP2 MSTORE PUSH1 0x20 ADD PUSH1 0x0 DUP2 MSTORE PUSH1 0x20 ADD PUSH1 0x0 DUP2 MSTORE PUSH1 0x20 ADD PUSH1 0x0 PUSH1 0x3 DUP2 GT ISZERO PUSH2 0x1E3B JUMPI INVALID JUMPDEST SWAP1 MSTORE SWAP1 JUMP STOP LOG1 PUSH6 0x627A7A723058 KECCAK256 0xc9 MUL 0xb0 SWAP4 JUMP 0xea 0xc7 0xeb PUSH3 0x5EEA66 PUSH28 0x7BE7F06A179A699D48385708C0B0130A4D9E90002900000000000000 "
			}
		}
	},
	"sourceTreeHashHex": "0x38de6f088a39c7770470efe730aa56466560ae7b106c6af7bba0901b04cbcf0a",
	"compiler": {
		"name": "solc",
		"version": "0.4.25+commit.59dbf8f1.Linux.g++",
		"settings": {
			"optimizer": {
				"enabled": true,
				"runs": 1000000
			},
			"outputSelection": {
				"*": {
					"*": [
						"abi",
						"evm.bytecode.object",
						"evm.bytecode.sourceMap",
						"evm.deployedBytecode.object",
						"evm.deployedBytecode.sourceMap"
					]
				}
			},
			"remappings": [
				"@0x/contracts-utils=/Users/wardencliffe/Documents/Projects/Personal/0x-monorepo-mirror/node_modules/@0x/contracts-utils"
			]
		}
	}
}