{
	"schemaVersion": "2.0.0",
	"contractName": "RoboDexToken",
	"compilerOutput": {
		"abi": [
			{
				"constant": false,
				"inputs": [
					{
						"name": "spender",
						"type": "address"
					},
					{
						"name": "value",
						"type": "uint256"
					}
				],
				"name": "approve",
				"outputs": [
					{
						"name": "",
						"type": "bool"
					}
				],
				"payable": false,
				"stateMutability": "nonpayable",
				"type": "function"
			},
			{
				"constant": true,
				"inputs": [],
				"name": "totalSupply",
				"outputs": [
					{
						"name": "",
						"type": "uint256"
					}
				],
				"payable": false,
				"stateMutability": "view",
				"type": "function"
			},
			{
				"constant": false,
				"inputs": [
					{
						"name": "from",
						"type": "address"
					},
					{
						"name": "to",
						"type": "address"
					},
					{
						"name": "value",
						"type": "uint256"
					}
				],
				"name": "transferFrom",
				"outputs": [
					{
						"name": "",
						"type": "bool"
					}
				],
				"payable": false,
				"stateMutability": "nonpayable",
				"type": "function"
			},
			{
				"constant": false,
				"inputs": [
					{
						"name": "spender",
						"type": "address"
					},
					{
						"name": "value",
						"type": "uint256"
					}
				],
				"name": "increaseAllowance",
				"outputs": [
					{
						"name": "",
						"type": "bool"
					}
				],
				"payable": false,
				"stateMutability": "nonpayable",
				"type": "function"
			},
			{
				"constant": true,
				"inputs": [
					{
						"name": "positionId",
						"type": "bytes32"
					}
				],
				"name": "getPositionInfo",
				"outputs": [
					{
						"name": "baseToken",
						"type": "address"
					},
					{
						"name": "quoteToken",
						"type": "address"
					},
					{
						"name": "makerAddress",
						"type": "address"
					},
					{
						"name": "takerAddress",
						"type": "address"
					},
					{
						"name": "tradeType",
						"type": "uint8"
					},
					{
						"name": "amount",
						"type": "int256"
					},
					{
						"name": "margin",
						"type": "uint256"
					},
					{
						"name": "openPrice",
						"type": "uint256"
					},
					{
						"name": "closePrice",
						"type": "uint256"
					},
					{
						"name": "filled",
						"type": "uint256"
					},
					{
						"name": "timestamp",
						"type": "uint256"
					},
					{
						"name": "state",
						"type": "uint8"
					}
				],
				"payable": false,
				"stateMutability": "view",
				"type": "function"
			},
			{
				"constant": true,
				"inputs": [
					{
						"name": "owner",
						"type": "address"
					}
				],
				"name": "balanceOf",
				"outputs": [
					{
						"name": "",
						"type": "uint256"
					}
				],
				"payable": false,
				"stateMutability": "view",
				"type": "function"
			},
			{
				"constant": false,
				"inputs": [
					{
						"name": "spender",
						"type": "address"
					},
					{
						"name": "value",
						"type": "uint256"
					}
				],
				"name": "decreaseAllowance",
				"outputs": [
					{
						"name": "",
						"type": "bool"
					}
				],
				"payable": false,
				"stateMutability": "nonpayable",
				"type": "function"
			},
			{
				"constant": false,
				"inputs": [
					{
						"name": "to",
						"type": "address"
					},
					{
						"name": "value",
						"type": "uint256"
					}
				],
				"name": "transfer",
				"outputs": [
					{
						"name": "",
						"type": "bool"
					}
				],
				"payable": false,
				"stateMutability": "nonpayable",
				"type": "function"
			},
			{
				"constant": true,
				"inputs": [
					{
						"name": "owner",
						"type": "address"
					},
					{
						"name": "spender",
						"type": "address"
					}
				],
				"name": "allowance",
				"outputs": [
					{
						"name": "",
						"type": "uint256"
					}
				],
				"payable": false,
				"stateMutability": "view",
				"type": "function"
			},
			{
				"constant": false,
				"inputs": [
					{
						"name": "makerAssetData",
						"type": "bytes"
					},
					{
						"name": "takerAssetData",
						"type": "bytes"
					},
					{
						"name": "dexData",
						"type": "bytes"
					}
				],
				"name": "peddle",
				"outputs": [
					{
						"name": "",
						"type": "bool"
					}
				],
				"payable": false,
				"stateMutability": "nonpayable",
				"type": "function"
			},
			{
				"inputs": [],
				"payable": false,
				"stateMutability": "nonpayable",
				"type": "constructor"
			},
			{
				"anonymous": false,
				"inputs": [
					{
						"indexed": false,
						"name": "positionId",
						"type": "bytes32"
					},
					{
						"indexed": false,
						"name": "baseToken",
						"type": "address"
					},
					{
						"indexed": false,
						"name": "quoteToken",
						"type": "address"
					},
					{
						"indexed": true,
						"name": "makerAddress",
						"type": "address"
					},
					{
						"indexed": true,
						"name": "takerAddress",
						"type": "address"
					},
					{
						"indexed": true,
						"name": "tradeType",
						"type": "uint8"
					},
					{
						"indexed": false,
						"name": "amount",
						"type": "int256"
					},
					{
						"indexed": false,
						"name": "margin",
						"type": "uint256"
					},
					{
						"indexed": false,
						"name": "openPrice",
						"type": "uint256"
					},
					{
						"indexed": false,
						"name": "closePrice",
						"type": "uint256"
					}
				],
				"name": "PositionOpened",
				"type": "event"
			},
			{
				"anonymous": false,
				"inputs": [
					{
						"indexed": false,
						"name": "positionId",
						"type": "bytes32"
					},
					{
						"indexed": true,
						"name": "from",
						"type": "address"
					},
					{
						"indexed": true,
						"name": "to",
						"type": "address"
					},
					{
						"indexed": false,
						"name": "amount",
						"type": "int256"
					}
				],
				"name": "PositionClosed",
				"type": "event"
			},
			{
				"anonymous": false,
				"inputs": [
					{
						"indexed": true,
						"name": "from",
						"type": "address"
					},
					{
						"indexed": true,
						"name": "to",
						"type": "address"
					},
					{
						"indexed": false,
						"name": "value",
						"type": "uint256"
					}
				],
				"name": "Transfer",
				"type": "event"
			},
			{
				"anonymous": false,
				"inputs": [
					{
						"indexed": true,
						"name": "owner",
						"type": "address"
					},
					{
						"indexed": true,
						"name": "spender",
						"type": "address"
					},
					{
						"indexed": false,
						"name": "value",
						"type": "uint256"
					}
				],
				"name": "Approval",
				"type": "event"
			}
		],
		"evm": {
			"bytecode": {
				"linkReferences": {},
				"object": "0x608060405234801561001057600080fd5b506b033b2e3c9fd0803ce800000060008181553380825260016020908152604080842085905580519485525191937fddf252ad1be2c89b69c2b068fc378daa952ba7f163c4a11628f55a4df523b3ef929081900390910190a342621baf8001600655611ce3806100816000396000f3006080604052600436106100a35763ffffffff7c0100000000000000000000000000000000000000000000000000000000600035041663095ea7b381146100a857806318160ddd146100ed57806323b872dd14610114578063395093511461014b5780635f458e511461017c57806370a0823114610233578063a457c2d714610261578063a9059cbb14610292578063dd62ed3e146102c3578063f4970c90146102f7575b600080fd5b3480156100b457600080fd5b506100d973ffffffffffffffffffffffffffffffffffffffff6004351660243561032f565b604080519115158252519081900360200190f35b3480156100f957600080fd5b506101026103a2565b60408051918252519081900360200190f35b34801561012057600080fd5b506100d973ffffffffffffffffffffffffffffffffffffffff600435811690602435166044356103a8565b34801561015757600080fd5b506100d973ffffffffffffffffffffffffffffffffffffffff600435166024356103ca565b34801561018857600080fd5b50610194600435610402565b6040805173ffffffffffffffffffffffffffffffffffffffff808f1682528d811660208301528c811692820192909252908a166060820152608081018960018111156101dc57fe5b60ff16815260200188815260200187815260200186815260200185815260200184815260200183815260200182600381111561021457fe5b60ff1681526020019c5050505050505050505050505060405180910390f35b34801561023f57600080fd5b5061010273ffffffffffffffffffffffffffffffffffffffff60043516610584565b34801561026d57600080fd5b506100d973ffffffffffffffffffffffffffffffffffffffff600435166024356105ac565b34801561029e57600080fd5b506100d973ffffffffffffffffffffffffffffffffffffffff600435166024356105db565b3480156102cf57600080fd5b5061010273ffffffffffffffffffffffffffffffffffffffff600435811690602435166105e8565b34801561030357600080fd5b506100d96024600480358281019290820135918135808301929082013591604435918201910135610620565b33600081815260026020908152604080832073ffffffffffffffffffffffffffffffffffffffff8716808552908352818420869055815186815291519394909390927f8c5be1e5ebec7d5bd14f71427d1e84f3dd0314c0f7b2291e5b200ac8c7c3b925928290030190a350600192915050565b60005490565b60006103b58433846108d5565b6103c08484846109d2565b5060019392505050565b600073ffffffffffffffffffffffffffffffffffffffff831615156103ee57600080fd5b6103f9338484610ae7565b50600192915050565b60008060008060008060008060008060008061041c611c4c565b60008e815260036020818152604092839020835161018081018552815473ffffffffffffffffffffffffffffffffffffffff90811682526001808401548216948301949094526002830154811695820195909552928101549384166060840152919260808401917401000000000000000000000000000000000000000090910460ff16908111156104a957fe5b60018111156104b457fe5b815260048201546020820152600582015460408201526006820154606082015260078201546080820152600882015460a0820152600982015460c0820152600a82015460e09091019060ff16600381111561050b57fe5b600381111561051657fe5b81525050905080600001519c5080602001519b5080604001519a5080606001519950806080015198508060a0015197508060c0015196508060e00151955080610100015194508061012001519350806101400151925080610160015191505091939597999b5091939597999b565b73ffffffffffffffffffffffffffffffffffffffff1660009081526001602052604090205490565b600073ffffffffffffffffffffffffffffffffffffffff831615156105d057600080fd5b6103f93384846108d5565b60006103f93384846109d2565b73ffffffffffffffffffffffffffffffffffffffff918216600090815260026020908152604080832093909416825291909152205490565b600061062a611c4c565b610632611c4c565b6000806000806106718d8d8080601f01602080910402602001604051908101604052809392919081815260200183838082843750610b31945050505050565b95506106ac8b8b8080601f01602080910402602001604051908101604052809392919081815260200183838082843750610b31945050505050565b94506106b786610deb565b93506106c285610deb565b92506106cd84611019565b1591506106d983611019565b1590508180156106e65750805b1561078e5761070386600001518760400151308960c00151611046565b61071b85600001518660400151308860c00151611046565b61075186600001518760200151886040015189606001518a608001518b60a001518c60c001518d60e001518e6101000151611166565b50610788856000015186602001518760400151886060015189608001518a60a001518b60c001518c60e001518d6101000151611166565b506108c5565b801561082c576107ac85600001518660400151308860c00151611046565b6107e2856000015186602001518760400151886060015189608001518a60a001518b60c001518c60e001518d6101000151611166565b5061082784876040015187604001518c8c8080601f01602080910402602001604051908101604052809392919081815260200183838082843750611711945050505050565b6108c5565b81156108c55761084a86600001518760400151308960c00151611046565b61088086600001518760200151886040015189606001518a608001518b60a001518c60c001518d60e001518e6101000151611166565b506108c583866040015188604001518c8c8080601f01602080910402602001604051908101604052809392919081815260200183838082843750611711945050505050565b5050505050509695505050505050565b600081118015610917575073ffffffffffffffffffffffffffffffffffffffff8084166000908152600260209081526040808320938616835292905220548111155b151561092257600080fd5b73ffffffffffffffffffffffffffffffffffffffff80841660009081526002602090815260408083209386168352929052205461095f90826119c2565b73ffffffffffffffffffffffffffffffffffffffff84811660008181526002602090815260408083209488168084529482529182902085905581519485529051929391927f8c5be1e5ebec7d5bd14f71427d1e84f3dd0314c0f7b2291e5b200ac8c7c3b9259281900390910190a3505050565b600081118015610a07575073ffffffffffffffffffffffffffffffffffffffff83166000908152600160205260409020548111155b1515610a1257600080fd5b73ffffffffffffffffffffffffffffffffffffffff8316600090815260016020526040902054610a4290826119c2565b73ffffffffffffffffffffffffffffffffffffffff8085166000908152600160205260408082209390935590841681522054610a7e9082611a39565b73ffffffffffffffffffffffffffffffffffffffff80841660008181526001602090815260409182902094909455805185815290519193928716927fddf252ad1be2c89b69c2b068fc378daa952ba7f163c4a11628f55a4df523b3ef92918290030190a3505050565b60008111610af457600080fd5b73ffffffffffffffffffffffffffffffffffffffff80841660009081526002602090815260408083209386168352929052205461095f9082611a39565b610b39611c4c565b6000806000806000806000806000808b51610140141515610bbb57604080517f08c379a000000000000000000000000000000000000000000000000000000000815260206004820152601960248201527f494e56414c49445f41535345545f444154415f4c454e47544800000000000000604482015290519081900360640190fd5b610bcc8c600063ffffffff611ab416565b9950610bdf8c602063ffffffff611ab416565b9850610bf28c604063ffffffff611ab416565b9750610c058c606063ffffffff611ab416565b965060007f0100000000000000000000000000000000000000000000000000000000000000028c609f815181101515610c3a57fe5b9060200101517f010000000000000000000000000000000000000000000000000000000000000090047f0100000000000000000000000000000000000000000000000000000000000000027effffffffffffffffffffffffffffffffffffffffffffffffffffffffffffff191611610cb3576000610cb6565b60015b9550610cc98c60a063ffffffff611b7016565b9450610cdc8c60c063ffffffff611c1616565b9350610cef8c60e063ffffffff611c1616565b9250610d038c61010063ffffffff611c1616565b9150610d178c61012063ffffffff611c1616565b9050610180604051908101604052808b73ffffffffffffffffffffffffffffffffffffffff1681526020018a73ffffffffffffffffffffffffffffffffffffffff1681526020018973ffffffffffffffffffffffffffffffffffffffff1681526020018873ffffffffffffffffffffffffffffffffffffffff168152602001876001811115610da257fe5b81526020018681526020018581526020018481526020018381526020016000815260200182815260200160006003811115610dd957fe5b90529c9b505050505050505050505050565b60006060826000015183602001518460400151856060015186608001518760a00151886101400151604051602001808873ffffffffffffffffffffffffffffffffffffffff1673ffffffffffffffffffffffffffffffffffffffff166c010000000000000000000000000281526014018773ffffffffffffffffffffffffffffffffffffffff1673ffffffffffffffffffffffffffffffffffffffff166c010000000000000000000000000281526014018673ffffffffffffffffffffffffffffffffffffffff1673ffffffffffffffffffffffffffffffffffffffff166c010000000000000000000000000281526014018573ffffffffffffffffffffffffffffffffffffffff1673ffffffffffffffffffffffffffffffffffffffff166c01000000000000000000000000028152601401846001811115610f2a57fe5b60ff167f01000000000000000000000000000000000000000000000000000000000000000281526001018381526020018281526020019750505050505050506040516020818303038152906040529050806040518082805190602001908083835b60208310610fc857805182527fffffffffffffffffffffffffffffffffffffffffffffffffffffffffffffffe09092019160209182019101610f8b565b5181516020939093036101000a7fffffffffffffffffffffffffffffffffffffffffffffffffffffffffffffffff018019909116921691909117905260405192018290039091209695505050505050565b600060016000838152600360208190526040909120600a015460ff169081111561103f57fe5b1492915050565b604080517f23b872dd00000000000000000000000000000000000000000000000000000000815273ffffffffffffffffffffffffffffffffffffffff85811660048301528481166024830152604482018490529151918616916323b872dd916064808201926020929091908290030181600087803b1580156110c757600080fd5b505af11580156110db573d6000803e3d6000fd5b505050506040513d60208110156110f157600080fd5b5051151561116057604080517f08c379a000000000000000000000000000000000000000000000000000000000815260206004820152601e60248201527f554e41424c455f544f5f5452414e534645525f45524332305f544f4b454e0000604482015290519081900360640190fd5b50505050565b6000611170611c4c565b73ffffffffffffffffffffffffffffffffffffffff8b16158015906111aa575073ffffffffffffffffffffffffffffffffffffffff8a1615155b80156111e257508973ffffffffffffffffffffffffffffffffffffffff168b73ffffffffffffffffffffffffffffffffffffffff1614155b151561124f57604080517f08c379a000000000000000000000000000000000000000000000000000000000815260206004820152601d60248201527f45524332305f544f4b454e5f4144445245535345535f494e56414c4944000000604482015290519081900360640190fd5b73ffffffffffffffffffffffffffffffffffffffff891615801590611289575073ffffffffffffffffffffffffffffffffffffffff881615155b80156112c157508773ffffffffffffffffffffffffffffffffffffffff168973ffffffffffffffffffffffffffffffffffffffff1614155b151561132e57604080517f08c379a000000000000000000000000000000000000000000000000000000000815260206004820152601860248201527f5452414445525f4144445245535345535f494e56414c49440000000000000000604482015290519081900360640190fd5b600087600181111561133c57fe5b14806113535750600187600181111561135157fe5b145b15156113c057604080517f08c379a000000000000000000000000000000000000000000000000000000000815260206004820152601260248201527f54524144455f545950455f494e56414c49440000000000000000000000000000604482015290519081900360640190fd5b610180604051908101604052808c73ffffffffffffffffffffffffffffffffffffffff1681526020018b73ffffffffffffffffffffffffffffffffffffffff1681526020018a73ffffffffffffffffffffffffffffffffffffffff1681526020018973ffffffffffffffffffffffffffffffffffffffff16815260200188600181111561144957fe5b8152602001878152602001868152602001858152602001848152602001600081526020014281526020016000600381111561148057fe5b9052905061148d81610deb565b6000818152600360205260409020600901549092501561150e57604080517f08c379a000000000000000000000000000000000000000000000000000000000815260206004820152601760248201527f504f534954494f4e5f414c52454144595f4f50454e4544000000000000000000604482015290519081900360640190fd5b600082815260036020818152604092839020845181547fffffffffffffffffffffffff000000000000000000000000000000000000000090811673ffffffffffffffffffffffffffffffffffffffff928316178355928601516001808401805486169284169290921790915594860151600283018054851691831691909117905560608601519382018054909316931692909217808255608085015185949092917fffffffffffffffffffffff00ffffffffffffffffffffffffffffffffffffffff1690740100000000000000000000000000000000000000009084908111156115f457fe5b021790555060a0820151600482015560c0820151600582015560e08201516006820155610100820151600782015561012082015160088201556101408201516009820155610160820151600a820180547fffffffffffffffffffffffffffffffffffffffffffffffffffffffffffffff0016600183600381111561167457fe5b021790555090505086600181111561168857fe5b6040805184815273ffffffffffffffffffffffffffffffffffffffff8e811660208301528d811682840152606082018a90526080820189905260a0820188905260c082018790529151828c16928d16917f9081af4372fd7c22014980982f4c3a122105334ce30a7f809691cb380f8f8965919081900360e00190a4509998505050505050505050565b6000848152600360205260408120906001600a83015460ff16600381111561173557fe5b146117a157604080517f08c379a000000000000000000000000000000000000000000000000000000000815260206004820152601660248201527f504f534954494f4e5f49535f4e4f545f4f50454e454400000000000000000000604482015290519081900360640190fd5b73ffffffffffffffffffffffffffffffffffffffff8516158015906117db575073ffffffffffffffffffffffffffffffffffffffff841615155b801561181357508373ffffffffffffffffffffffffffffffffffffffff168573ffffffffffffffffffffffffffffffffffffffff1614155b151561188057604080517f08c379a000000000000000000000000000000000000000000000000000000000815260206004820152601860248201527f5452414445525f4144445245535345535f494e56414c49440000000000000000604482015290519081900360640190fd5b61188983611c22565b90506000600383015474010000000000000000000000000000000000000000900460ff1660018111156118b857fe5b14156118c357611962565b6001600383015474010000000000000000000000000000000000000000900460ff1660018111156118f057fe5b14156118fb57611962565b604080517f08c379a000000000000000000000000000000000000000000000000000000000815260206004820152601b60248201527f504f534954494f4e5f54524144455f545950455f494e56414c49440000000000604482015290519081900360640190fd5b6040805187815260208101839052815173ffffffffffffffffffffffffffffffffffffffff80881693908916927fcd2ebf70bdf4dec83bc8bb4634d2077dd87b0a3aa452e45d4599b9114a1960f6929081900390910190a3505050505050565b600082821115611a3357604080517f08c379a000000000000000000000000000000000000000000000000000000000815260206004820152601160248201527f55494e543235365f554e444552464c4f57000000000000000000000000000000604482015290519081900360640190fd5b50900390565b600082820183811015611aad57604080517f08c379a000000000000000000000000000000000000000000000000000000000815260206004820152601060248201527f55494e543235365f4f564552464c4f5700000000000000000000000000000000604482015290519081900360640190fd5b9392505050565b600081601401835110151515611b5157604080517f08c379a000000000000000000000000000000000000000000000000000000000815260206004820152602660248201527f475245415445525f4f525f455155414c5f544f5f32305f4c454e4754485f524560448201527f5155495245440000000000000000000000000000000000000000000000000000606482015290519081900360840190fd5b50016014015173ffffffffffffffffffffffffffffffffffffffff1690565b600081602001835110151515611c0d57604080517f08c379a000000000000000000000000000000000000000000000000000000000815260206004820152602660248201527f475245415445525f4f525f455155414c5f544f5f33325f4c454e4754485f524560448201527f5155495245440000000000000000000000000000000000000000000000000000606482015290519081900360840190fd5b50016020015190565b6000611aad8383611b70565b60006020825110611c4357611c3e82600063ffffffff611b7016565b611c46565b60005b92915050565b604080516101808101825260008082526020820181905291810182905260608101829052906080820190815260200160008152602001600081526020016000815260200160008152602001600081526020016000815260200160006003811115611cb257fe5b9052905600a165627a7a72305820042f4ad924a3c8963a33b6d95131786304b1a5ed5262ed791a9b59c0b4b760330029",
				"opcodes": "PUSH1 0x80 PUSH1 0x40 MSTORE CALLVALUE DUP1 ISZERO PUSH2 0x10 JUMPI PUSH1 0x0 DUP1 REVERT JUMPDEST POP PUSH12 0x33B2E3C9FD0803CE8000000 PUSH1 0x0 DUP2 DUP2 SSTORE CALLER DUP1 DUP3 MSTORE PUSH1 0x1 PUSH1 0x20 SWAP1 DUP2 MSTORE PUSH1 0x40 DUP1 DUP5 KECCAK256 DUP6 SWAP1 SSTORE DUP1 MLOAD SWAP5 DUP6 MSTORE MLOAD SWAP2 SWAP4 PUSH32 0xDDF252AD1BE2C89B69C2B068FC378DAA952BA7F163C4A11628F55A4DF523B3EF SWAP3 SWAP1 DUP2 SWAP1 SUB SWAP1 SWAP2 ADD SWAP1 LOG3 TIMESTAMP PUSH3 0x1BAF80 ADD PUSH1 0x6 SSTORE PUSH2 0x1CE3 DUP1 PUSH2 0x81 PUSH1 0x0 CODECOPY PUSH1 0x0 RETURN STOP PUSH1 0x80 PUSH1 0x40 MSTORE PUSH1 0x4 CALLDATASIZE LT PUSH2 0xA3 JUMPI PUSH4 0xFFFFFFFF PUSH29 0x100000000000000000000000000000000000000000000000000000000 PUSH1 0x0 CALLDATALOAD DIV AND PUSH4 0x95EA7B3 DUP2 EQ PUSH2 0xA8 JUMPI DUP1 PUSH4 0x18160DDD EQ PUSH2 0xED JUMPI DUP1 PUSH4 0x23B872DD EQ PUSH2 0x114 JUMPI DUP1 PUSH4 0x39509351 EQ PUSH2 0x14B JUMPI DUP1 PUSH4 0x5F458E51 EQ PUSH2 0x17C JUMPI DUP1 PUSH4 0x70A08231 EQ PUSH2 0x233 JUMPI DUP1 PUSH4 0xA457C2D7 EQ PUSH2 0x261 JUMPI DUP1 PUSH4 0xA9059CBB EQ PUSH2 0x292 JUMPI DUP1 PUSH4 0xDD62ED3E EQ PUSH2 0x2C3 JUMPI DUP1 PUSH4 0xF4970C90 EQ PUSH2 0x2F7 JUMPI JUMPDEST PUSH1 0x0 DUP1 REVERT JUMPDEST CALLVALUE DUP1 ISZERO PUSH2 0xB4 JUMPI PUSH1 0x0 DUP1 REVERT JUMPDEST POP PUSH2 0xD9 PUSH20 0xFFFFFFFFFFFFFFFFFFFFFFFFFFFFFFFFFFFFFFFF PUSH1 0x4 CALLDATALOAD AND PUSH1 0x24 CALLDATALOAD PUSH2 0x32F JUMP JUMPDEST PUSH1 0x40 DUP1 MLOAD SWAP2 ISZERO ISZERO DUP3 MSTORE MLOAD SWAP1 DUP2 SWAP1 SUB PUSH1 0x20 ADD SWAP1 RETURN JUMPDEST CALLVALUE DUP1 ISZERO PUSH2 0xF9 JUMPI PUSH1 0x0 DUP1 REVERT JUMPDEST POP PUSH2 0x102 PUSH2 0x3A2 JUMP JUMPDEST PUSH1 0x40 DUP1 MLOAD SWAP2 DUP3 MSTORE MLOAD SWAP1 DUP2 SWAP1 SUB PUSH1 0x20 ADD SWAP1 RETURN JUMPDEST CALLVALUE DUP1 ISZERO PUSH2 0x120 JUMPI PUSH1 0x0 DUP1 REVERT JUMPDEST POP PUSH2 0xD9 PUSH20 0xFFFFFFFFFFFFFFFFFFFFFFFFFFFFFFFFFFFFFFFF PUSH1 0x4 CALLDATALOAD DUP2 AND SWAP1 PUSH1 0x24 CALLDATALOAD AND PUSH1 0x44 CALLDATALOAD PUSH2 0x3A8 JUMP JUMPDEST CALLVALUE DUP1 ISZERO PUSH2 0x157 JUMPI PUSH1 0x0 DUP1 REVERT JUMPDEST POP PUSH2 0xD9 PUSH20 0xFFFFFFFFFFFFFFFFFFFFFFFFFFFFFFFFFFFFFFFF PUSH1 0x4 CALLDATALOAD AND PUSH1 0x24 CALLDATALOAD PUSH2 0x3CA JUMP JUMPDEST CALLVALUE DUP1 ISZERO PUSH2 0x188 JUMPI PUSH1 0x0 DUP1 REVERT JUMPDEST POP PUSH2 0x194 PUSH1 0x4 CALLDATALOAD PUSH2 0x402 JUMP JUMPDEST PUSH1 0x40 DUP1 MLOAD PUSH20 0xFFFFFFFFFFFFFFFFFFFFFFFFFFFFFFFFFFFFFFFF DUP1 DUP16 AND DUP3 MSTORE DUP14 DUP2 AND PUSH1 0x20 DUP4 ADD MSTORE DUP13 DUP2 AND SWAP3 DUP3 ADD SWAP3 SWAP1 SWAP3 MSTORE SWAP1 DUP11 AND PUSH1 0x60 DUP3 ADD MSTORE PUSH1 0x80 DUP2 ADD DUP10 PUSH1 0x1 DUP2 GT ISZERO PUSH2 0x1DC JUMPI INVALID JUMPDEST PUSH1 0xFF AND DUP2 MSTORE PUSH1 0x20 ADD DUP9 DUP2 MSTORE PUSH1 0x20 ADD DUP8 DUP2 MSTORE PUSH1 0x20 ADD DUP7 DUP2 MSTORE PUSH1 0x20 ADD DUP6 DUP2 MSTORE PUSH1 0x20 ADD DUP5 DUP2 MSTORE PUSH1 0x20 ADD DUP4 DUP2 MSTORE PUSH1 0x20 ADD DUP3 PUSH1 0x3 DUP2 GT ISZERO PUSH2 0x214 JUMPI INVALID JUMPDEST PUSH1 0xFF AND DUP2 MSTORE PUSH1 0x20 ADD SWAP13 POP POP POP POP POP POP POP POP POP POP POP POP POP PUSH1 0x40 MLOAD DUP1 SWAP2 SUB SWAP1 RETURN JUMPDEST CALLVALUE DUP1 ISZERO PUSH2 0x23F JUMPI PUSH1 0x0 DUP1 REVERT JUMPDEST POP PUSH2 0x102 PUSH20 0xFFFFFFFFFFFFFFFFFFFFFFFFFFFFFFFFFFFFFFFF PUSH1 0x4 CALLDATALOAD AND PUSH2 0x584 JUMP JUMPDEST CALLVALUE DUP1 ISZERO PUSH2 0x26D JUMPI PUSH1 0x0 DUP1 REVERT JUMPDEST POP PUSH2 0xD9 PUSH20 0xFFFFFFFFFFFFFFFFFFFFFFFFFFFFFFFFFFFFFFFF PUSH1 0x4 CALLDATALOAD AND PUSH1 0x24 CALLDATALOAD PUSH2 0x5AC JUMP JUMPDEST CALLVALUE DUP1 ISZERO PUSH2 0x29E JUMPI PUSH1 0x0 DUP1 REVERT JUMPDEST POP PUSH2 0xD9 PUSH20 0xFFFFFFFFFFFFFFFFFFFFFFFFFFFFFFFFFFFFFFFF PUSH1 0x4 CALLDATALOAD AND PUSH1 0x24 CALLDATALOAD PUSH2 0x5DB JUMP JUMPDEST CALLVALUE DUP1 ISZERO PUSH2 0x2CF JUMPI PUSH1 0x0 DUP1 REVERT JUMPDEST POP PUSH2 0x102 PUSH20 0xFFFFFFFFFFFFFFFFFFFFFFFFFFFFFFFFFFFFFFFF PUSH1 0x4 CALLDATALOAD DUP2 AND SWAP1 PUSH1 0x24 CALLDATALOAD AND PUSH2 0x5E8 JUMP JUMPDEST CALLVALUE DUP1 ISZERO PUSH2 0x303 JUMPI PUSH1 0x0 DUP1 REVERT JUMPDEST POP PUSH2 0xD9 PUSH1 0x24 PUSH1 0x4 DUP1 CALLDATALOAD DUP3 DUP2 ADD SWAP3 SWAP1 DUP3 ADD CALLDATALOAD SWAP2 DUP2 CALLDATALOAD DUP1 DUP4 ADD SWAP3 SWAP1 DUP3 ADD CALLDATALOAD SWAP2 PUSH1 0x44 CALLDATALOAD SWAP2 DUP3 ADD SWAP2 ADD CALLDATALOAD PUSH2 0x620 JUMP JUMPDEST CALLER PUSH1 0x0 DUP2 DUP2 MSTORE PUSH1 0x2 PUSH1 0x20 SWAP1 DUP2 MSTORE PUSH1 0x40 DUP1 DUP4 KECCAK256 PUSH20 0xFFFFFFFFFFFFFFFFFFFFFFFFFFFFFFFFFFFFFFFF DUP8 AND DUP1 DUP6 MSTORE SWAP1 DUP4 MSTORE DUP2 DUP5 KECCAK256 DUP7 SWAP1 SSTORE DUP2 MLOAD DUP7 DUP2 MSTORE SWAP2 MLOAD SWAP4 SWAP5 SWAP1 SWAP4 SWAP1 SWAP3 PUSH32 0x8C5BE1E5EBEC7D5BD14F71427D1E84F3DD0314C0F7B2291E5B200AC8C7C3B925 SWAP3 DUP3 SWAP1 SUB ADD SWAP1 LOG3 POP PUSH1 0x1 SWAP3 SWAP2 POP POP JUMP JUMPDEST PUSH1 0x0 SLOAD SWAP1 JUMP JUMPDEST PUSH1 0x0 PUSH2 0x3B5 DUP5 CALLER DUP5 PUSH2 0x8D5 JUMP JUMPDEST PUSH2 0x3C0 DUP5 DUP5 DUP5 PUSH2 0x9D2 JUMP JUMPDEST POP PUSH1 0x1 SWAP4 SWAP3 POP POP POP JUMP JUMPDEST PUSH1 0x0 PUSH20 0xFFFFFFFFFFFFFFFFFFFFFFFFFFFFFFFFFFFFFFFF DUP4 AND ISZERO ISZERO PUSH2 0x3EE JUMPI PUSH1 0x0 DUP1 REVERT JUMPDEST PUSH2 0x3F9 CALLER DUP5 DUP5 PUSH2 0xAE7 JUMP JUMPDEST POP PUSH1 0x1 SWAP3 SWAP2 POP POP JUMP JUMPDEST PUSH1 0x0 DUP1 PUSH1 0x0 DUP1 PUSH1 0x0 DUP1 PUSH1 0x0 DUP1 PUSH1 0x0 DUP1 PUSH1 0x0 DUP1 PUSH2 0x41C PUSH2 0x1C4C JUMP JUMPDEST PUSH1 0x0 DUP15 DUP2 MSTORE PUSH1 0x3 PUSH1 0x20 DUP2 DUP2 MSTORE PUSH1 0x40 SWAP3 DUP4 SWAP1 KECCAK256 DUP4 MLOAD PUSH2 0x180 DUP2 ADD DUP6 MSTORE DUP2 SLOAD PUSH20 0xFFFFFFFFFFFFFFFFFFFFFFFFFFFFFFFFFFFFFFFF SWAP1 DUP2 AND DUP3 MSTORE PUSH1 0x1 DUP1 DUP5 ADD SLOAD DUP3 AND SWAP5 DUP4 ADD SWAP5 SWAP1 SWAP5 MSTORE PUSH1 0x2 DUP4 ADD SLOAD DUP2 AND SWAP6 DUP3 ADD SWAP6 SWAP1 SWAP6 MSTORE SWAP3 DUP2 ADD SLOAD SWAP4 DUP5 AND PUSH1 0x60 DUP5 ADD MSTORE SWAP2 SWAP3 PUSH1 0x80 DUP5 ADD SWAP2 PUSH21 0x10000000000000000000000000000000000000000 SWAP1 SWAP2 DIV PUSH1 0xFF AND SWAP1 DUP2 GT ISZERO PUSH2 0x4A9 JUMPI INVALID JUMPDEST PUSH1 0x1 DUP2 GT ISZERO PUSH2 0x4B4 JUMPI INVALID JUMPDEST DUP2 MSTORE PUSH1 0x4 DUP3 ADD SLOAD PUSH1 0x20 DUP3 ADD MSTORE PUSH1 0x5 DUP3 ADD SLOAD PUSH1 0x40 DUP3 ADD MSTORE PUSH1 0x6 DUP3 ADD SLOAD PUSH1 0x60 DUP3 ADD MSTORE PUSH1 0x7 DUP3 ADD SLOAD PUSH1 0x80 DUP3 ADD MSTORE PUSH1 0x8 DUP3 ADD SLOAD PUSH1 0xA0 DUP3 ADD MSTORE PUSH1 0x9 DUP3 ADD SLOAD PUSH1 0xC0 DUP3 ADD MSTORE PUSH1 0xA DUP3 ADD SLOAD PUSH1 0xE0 SWAP1 SWAP2 ADD SWAP1 PUSH1 0xFF AND PUSH1 0x3 DUP2 GT ISZERO PUSH2 0x50B JUMPI INVALID JUMPDEST PUSH1 0x3 DUP2 GT ISZERO PUSH2 0x516 JUMPI INVALID JUMPDEST DUP2 MSTORE POP POP SWAP1 POP DUP1 PUSH1 0x0 ADD MLOAD SWAP13 POP DUP1 PUSH1 0x20 ADD MLOAD SWAP12 POP DUP1 PUSH1 0x40 ADD MLOAD SWAP11 POP DUP1 PUSH1 0x60 ADD MLOAD SWAP10 POP DUP1 PUSH1 0x80 ADD MLOAD SWAP9 POP DUP1 PUSH1 0xA0 ADD MLOAD SWAP8 POP DUP1 PUSH1 0xC0 ADD MLOAD SWAP7 POP DUP1 PUSH1 0xE0 ADD MLOAD SWAP6 POP DUP1 PUSH2 0x100 ADD MLOAD SWAP5 POP DUP1 PUSH2 0x120 ADD MLOAD SWAP4 POP DUP1 PUSH2 0x140 ADD MLOAD SWAP3 POP DUP1 PUSH2 0x160 ADD MLOAD SWAP2 POP POP SWAP2 SWAP4 SWAP6 SWAP8 SWAP10 SWAP12 POP SWAP2 SWAP4 SWAP6 SWAP8 SWAP10 SWAP12 JUMP JUMPDEST PUSH20 0xFFFFFFFFFFFFFFFFFFFFFFFFFFFFFFFFFFFFFFFF AND PUSH1 0x0 SWAP1 DUP2 MSTORE PUSH1 0x1 PUSH1 0x20 MSTORE PUSH1 0x40 SWAP1 KECCAK256 SLOAD SWAP1 JUMP JUMPDEST PUSH1 0x0 PUSH20 0xFFFFFFFFFFFFFFFFFFFFFFFFFFFFFFFFFFFFFFFF DUP4 AND ISZERO ISZERO PUSH2 0x5D0 JUMPI PUSH1 0x0 DUP1 REVERT JUMPDEST PUSH2 0x3F9 CALLER DUP5 DUP5 PUSH2 0x8D5 JUMP JUMPDEST PUSH1 0x0 PUSH2 0x3F9 CALLER DUP5 DUP5 PUSH2 0x9D2 JUMP JUMPDEST PUSH20 0xFFFFFFFFFFFFFFFFFFFFFFFFFFFFFFFFFFFFFFFF SWAP2 DUP3 AND PUSH1 0x0 SWAP1 DUP2 MSTORE PUSH1 0x2 PUSH1 0x20 SWAP1 DUP2 MSTORE PUSH1 0x40 DUP1 DUP4 KECCAK256 SWAP4 SWAP1 SWAP5 AND DUP3 MSTORE SWAP2 SWAP1 SWAP2 MSTORE KECCAK256 SLOAD SWAP1 JUMP JUMPDEST PUSH1 0x0 PUSH2 0x62A PUSH2 0x1C4C JUMP JUMPDEST PUSH2 0x632 PUSH2 0x1C4C JUMP JUMPDEST PUSH1 0x0 DUP1 PUSH1 0x0 DUP1 PUSH2 0x671 DUP14 DUP14 DUP1 DUP1 PUSH1 0x1F ADD PUSH1 0x20 DUP1 SWAP2 DIV MUL PUSH1 0x20 ADD PUSH1 0x40 MLOAD SWAP1 DUP2 ADD PUSH1 0x40 MSTORE DUP1 SWAP4 SWAP3 SWAP2 SWAP1 DUP2 DUP2 MSTORE PUSH1 0x20 ADD DUP4 DUP4 DUP1 DUP3 DUP5 CALLDATACOPY POP PUSH2 0xB31 SWAP5 POP POP POP POP POP JUMP JUMPDEST SWAP6 POP PUSH2 0x6AC DUP12 DUP12 DUP1 DUP1 PUSH1 0x1F ADD PUSH1 0x20 DUP1 SWAP2 DIV MUL PUSH1 0x20 ADD PUSH1 0x40 MLOAD SWAP1 DUP2 ADD PUSH1 0x40 MSTORE DUP1 SWAP4 SWAP3 SWAP2 SWAP1 DUP2 DUP2 MSTORE PUSH1 0x20 ADD DUP4 DUP4 DUP1 DUP3 DUP5 CALLDATACOPY POP PUSH2 0xB31 SWAP5 POP POP POP POP POP JUMP JUMPDEST SWAP5 POP PUSH2 0x6B7 DUP7 PUSH2 0xDEB JUMP JUMPDEST SWAP4 POP PUSH2 0x6C2 DUP6 PUSH2 0xDEB JUMP JUMPDEST SWAP3 POP PUSH2 0x6CD DUP5 PUSH2 0x1019 JUMP JUMPDEST ISZERO SWAP2 POP PUSH2 0x6D9 DUP4 PUSH2 0x1019 JUMP JUMPDEST ISZERO SWAP1 POP DUP2 DUP1 ISZERO PUSH2 0x6E6 JUMPI POP DUP1 JUMPDEST ISZERO PUSH2 0x78E JUMPI PUSH2 0x703 DUP7 PUSH1 0x0 ADD MLOAD DUP8 PUSH1 0x40 ADD MLOAD ADDRESS DUP10 PUSH1 0xC0 ADD MLOAD PUSH2 0x1046 JUMP JUMPDEST PUSH2 0x71B DUP6 PUSH1 0x0 ADD MLOAD DUP7 PUSH1 0x40 ADD MLOAD ADDRESS DUP9 PUSH1 0xC0 ADD MLOAD PUSH2 0x1046 JUMP JUMPDEST PUSH2 0x751 DUP7 PUSH1 0x0 ADD MLOAD DUP8 PUSH1 0x20 ADD MLOAD DUP9 PUSH1 0x40 ADD MLOAD DUP10 PUSH1 0x60 ADD MLOAD DUP11 PUSH1 0x80 ADD MLOAD DUP12 PUSH1 0xA0 ADD MLOAD DUP13 PUSH1 0xC0 ADD MLOAD DUP14 PUSH1 0xE0 ADD MLOAD DUP15 PUSH2 0x100 ADD MLOAD PUSH2 0x1166 JUMP JUMPDEST POP PUSH2 0x788 DUP6 PUSH1 0x0 ADD MLOAD DUP7 PUSH1 0x20 ADD MLOAD DUP8 PUSH1 0x40 ADD MLOAD DUP9 PUSH1 0x60 ADD MLOAD DUP10 PUSH1 0x80 ADD MLOAD DUP11 PUSH1 0xA0 ADD MLOAD DUP12 PUSH1 0xC0 ADD MLOAD DUP13 PUSH1 0xE0 ADD MLOAD DUP14 PUSH2 0x100 ADD MLOAD PUSH2 0x1166 JUMP JUMPDEST POP PUSH2 0x8C5 JUMP JUMPDEST DUP1 ISZERO PUSH2 0x82C JUMPI PUSH2 0x7AC DUP6 PUSH1 0x0 ADD MLOAD DUP7 PUSH1 0x40 ADD MLOAD ADDRESS DUP9 PUSH1 0xC0 ADD MLOAD PUSH2 0x1046 JUMP JUMPDEST PUSH2 0x7E2 DUP6 PUSH1 0x0 ADD MLOAD DUP7 PUSH1 0x20 ADD MLOAD DUP8 PUSH1 0x40 ADD MLOAD DUP9 PUSH1 0x60 ADD MLOAD DUP10 PUSH1 0x80 ADD MLOAD DUP11 PUSH1 0xA0 ADD MLOAD DUP12 PUSH1 0xC0 ADD MLOAD DUP13 PUSH1 0xE0 ADD MLOAD DUP14 PUSH2 0x100 ADD MLOAD PUSH2 0x1166 JUMP JUMPDEST POP PUSH2 0x827 DUP5 DUP8 PUSH1 0x40 ADD MLOAD DUP8 PUSH1 0x40 ADD MLOAD DUP13 DUP13 DUP1 DUP1 PUSH1 0x1F ADD PUSH1 0x20 DUP1 SWAP2 DIV MUL PUSH1 0x20 ADD PUSH1 0x40 MLOAD SWAP1 DUP2 ADD PUSH1 0x40 MSTORE DUP1 SWAP4 SWAP3 SWAP2 SWAP1 DUP2 DUP2 MSTORE PUSH1 0x20 ADD DUP4 DUP4 DUP1 DUP3 DUP5 CALLDATACOPY POP PUSH2 0x1711 SWAP5 POP POP POP POP POP JUMP JUMPDEST PUSH2 0x8C5 JUMP JUMPDEST DUP2 ISZERO PUSH2 0x8C5 JUMPI PUSH2 0x84A DUP7 PUSH1 0x0 ADD MLOAD DUP8 PUSH1 0x40 ADD MLOAD ADDRESS DUP10 PUSH1 0xC0 ADD MLOAD PUSH2 0x1046 JUMP JUMPDEST PUSH2 0x880 DUP7 PUSH1 0x0 ADD MLOAD DUP8 PUSH1 0x20 ADD MLOAD DUP9 PUSH1 0x40 ADD MLOAD DUP10 PUSH1 0x60 ADD MLOAD DUP11 PUSH1 0x80 ADD MLOAD DUP12 PUSH1 0xA0 ADD MLOAD DUP13 PUSH1 0xC0 ADD MLOAD DUP14 PUSH1 0xE0 ADD MLOAD DUP15 PUSH2 0x100 ADD MLOAD PUSH2 0x1166 JUMP JUMPDEST POP PUSH2 0x8C5 DUP4 DUP7 PUSH1 0x40 ADD MLOAD DUP9 PUSH1 0x40 ADD MLOAD DUP13 DUP13 DUP1 DUP1 PUSH1 0x1F ADD PUSH1 0x20 DUP1 SWAP2 DIV MUL PUSH1 0x20 ADD PUSH1 0x40 MLOAD SWAP1 DUP2 ADD PUSH1 0x40 MSTORE DUP1 SWAP4 SWAP3 SWAP2 SWAP1 DUP2 DUP2 MSTORE PUSH1 0x20 ADD DUP4 DUP4 DUP1 DUP3 DUP5 CALLDATACOPY POP PUSH2 0x1711 SWAP5 POP POP POP POP POP JUMP JUMPDEST POP POP POP POP POP POP SWAP7 SWAP6 POP POP POP POP POP POP JUMP JUMPDEST PUSH1 0x0 DUP2 GT DUP1 ISZERO PUSH2 0x917 JUMPI POP PUSH20 0xFFFFFFFFFFFFFFFFFFFFFFFFFFFFFFFFFFFFFFFF DUP1 DUP5 AND PUSH1 0x0 SWAP1 DUP2 MSTORE PUSH1 0x2 PUSH1 0x20 SWAP1 DUP2 MSTORE PUSH1 0x40 DUP1 DUP4 KECCAK256 SWAP4 DUP7 AND DUP4 MSTORE SWAP3 SWAP1 MSTORE KECCAK256 SLOAD DUP2 GT ISZERO JUMPDEST ISZERO ISZERO PUSH2 0x922 JUMPI PUSH1 0x0 DUP1 REVERT JUMPDEST PUSH20 0xFFFFFFFFFFFFFFFFFFFFFFFFFFFFFFFFFFFFFFFF DUP1 DUP5 AND PUSH1 0x0 SWAP1 DUP2 MSTORE PUSH1 0x2 PUSH1 0x20 SWAP1 DUP2 MSTORE PUSH1 0x40 DUP1 DUP4 KECCAK256 SWAP4 DUP7 AND DUP4 MSTORE SWAP3 SWAP1 MSTORE KECCAK256 SLOAD PUSH2 0x95F SWAP1 DUP3 PUSH2 0x19C2 JUMP JUMPDEST PUSH20 0xFFFFFFFFFFFFFFFFFFFFFFFFFFFFFFFFFFFFFFFF DUP5 DUP2 AND PUSH1 0x0 DUP2 DUP2 MSTORE PUSH1 0x2 PUSH1 0x20 SWAP1 DUP2 MSTORE PUSH1 0x40 DUP1 DUP4 KECCAK256 SWAP5 DUP9 AND DUP1 DUP5 MSTORE SWAP5 DUP3 MSTORE SWAP2 DUP3 SWAP1 KECCAK256 DUP6 SWAP1 SSTORE DUP2 MLOAD SWAP5 DUP6 MSTORE SWAP1 MLOAD SWAP3 SWAP4 SWAP2 SWAP3 PUSH32 0x8C5BE1E5EBEC7D5BD14F71427D1E84F3DD0314C0F7B2291E5B200AC8C7C3B925 SWAP3 DUP2 SWAP1 SUB SWAP1 SWAP2 ADD SWAP1 LOG3 POP POP POP JUMP JUMPDEST PUSH1 0x0 DUP2 GT DUP1 ISZERO PUSH2 0xA07 JUMPI POP PUSH20 0xFFFFFFFFFFFFFFFFFFFFFFFFFFFFFFFFFFFFFFFF DUP4 AND PUSH1 0x0 SWAP1 DUP2 MSTORE PUSH1 0x1 PUSH1 0x20 MSTORE PUSH1 0x40 SWAP1 KECCAK256 SLOAD DUP2 GT ISZERO JUMPDEST ISZERO ISZERO PUSH2 0xA12 JUMPI PUSH1 0x0 DUP1 REVERT JUMPDEST PUSH20 0xFFFFFFFFFFFFFFFFFFFFFFFFFFFFFFFFFFFFFFFF DUP4 AND PUSH1 0x0 SWAP1 DUP2 MSTORE PUSH1 0x1 PUSH1 0x20 MSTORE PUSH1 0x40 SWAP1 KECCAK256 SLOAD PUSH2 0xA42 SWAP1 DUP3 PUSH2 0x19C2 JUMP JUMPDEST PUSH20 0xFFFFFFFFFFFFFFFFFFFFFFFFFFFFFFFFFFFFFFFF DUP1 DUP6 AND PUSH1 0x0 SWAP1 DUP2 MSTORE PUSH1 0x1 PUSH1 0x20 MSTORE PUSH1 0x40 DUP1 DUP3 KECCAK256 SWAP4 SWAP1 SWAP4 SSTORE SWAP1 DUP5 AND DUP2 MSTORE KECCAK256 SLOAD PUSH2 0xA7E SWAP1 DUP3 PUSH2 0x1A39 JUMP JUMPDEST PUSH20 0xFFFFFFFFFFFFFFFFFFFFFFFFFFFFFFFFFFFFFFFF DUP1 DUP5 AND PUSH1 0x0 DUP2 DUP2 MSTORE PUSH1 0x1 PUSH1 0x20 SWAP1 DUP2 MSTORE PUSH1 0x40 SWAP2 DUP3 SWAP1 KECCAK256 SWAP5 SWAP1 SWAP5 SSTORE DUP1 MLOAD DUP6 DUP2 MSTORE SWAP1 MLOAD SWAP2 SWAP4 SWAP3 DUP8 AND SWAP3 PUSH32 0xDDF252AD1BE2C89B69C2B068FC378DAA952BA7F163C4A11628F55A4DF523B3EF SWAP3 SWAP2 DUP3 SWAP1 SUB ADD SWAP1 LOG3 POP POP POP JUMP JUMPDEST PUSH1 0x0 DUP2 GT PUSH2 0xAF4 JUMPI PUSH1 0x0 DUP1 REVERT JUMPDEST PUSH20 0xFFFFFFFFFFFFFFFFFFFFFFFFFFFFFFFFFFFFFFFF DUP1 DUP5 AND PUSH1 0x0 SWAP1 DUP2 MSTORE PUSH1 0x2 PUSH1 0x20 SWAP1 DUP2 MSTORE PUSH1 0x40 DUP1 DUP4 KECCAK256 SWAP4 DUP7 AND DUP4 MSTORE SWAP3 SWAP1 MSTORE KECCAK256 SLOAD PUSH2 0x95F SWAP1 DUP3 PUSH2 0x1A39 JUMP JUMPDEST PUSH2 0xB39 PUSH2 0x1C4C JUMP JUMPDEST PUSH1 0x0 DUP1 PUSH1 0x0 DUP1 PUSH1 0x0 DUP1 PUSH1 0x0 DUP1 PUSH1 0x0 DUP1 DUP12 MLOAD PUSH2 0x140 EQ ISZERO ISZERO PUSH2 0xBBB JUMPI PUSH1 0x40 DUP1 MLOAD PUSH32 0x8C379A000000000000000000000000000000000000000000000000000000000 DUP2 MSTORE PUSH1 0x20 PUSH1 0x4 DUP3 ADD MSTORE PUSH1 0x19 PUSH1 0x24 DUP3 ADD MSTORE PUSH32 0x494E56414C49445F41535345545F444154415F4C454E47544800000000000000 PUSH1 0x44 DUP3 ADD MSTORE SWAP1 MLOAD SWAP1 DUP2 SWAP1 SUB PUSH1 0x64 ADD SWAP1 REVERT JUMPDEST PUSH2 0xBCC DUP13 PUSH1 0x0 PUSH4 0xFFFFFFFF PUSH2 0x1AB4 AND JUMP JUMPDEST SWAP10 POP PUSH2 0xBDF DUP13 PUSH1 0x20 PUSH4 0xFFFFFFFF PUSH2 0x1AB4 AND JUMP JUMPDEST SWAP9 POP PUSH2 0xBF2 DUP13 PUSH1 0x40 PUSH4 0xFFFFFFFF PUSH2 0x1AB4 AND JUMP JUMPDEST SWAP8 POP PUSH2 0xC05 DUP13 PUSH1 0x60 PUSH4 0xFFFFFFFF PUSH2 0x1AB4 AND JUMP JUMPDEST SWAP7 POP PUSH1 0x0 PUSH32 0x100000000000000000000000000000000000000000000000000000000000000 MUL DUP13 PUSH1 0x9F DUP2 MLOAD DUP2 LT ISZERO ISZERO PUSH2 0xC3A JUMPI INVALID JUMPDEST SWAP1 PUSH1 0x20 ADD ADD MLOAD PUSH32 0x100000000000000000000000000000000000000000000000000000000000000 SWAP1 DIV PUSH32 0x100000000000000000000000000000000000000000000000000000000000000 MUL PUSH31 0xFFFFFFFFFFFFFFFFFFFFFFFFFFFFFFFFFFFFFFFFFFFFFFFFFFFFFFFFFFFFFF NOT AND GT PUSH2 0xCB3 JUMPI PUSH1 0x0 PUSH2 0xCB6 JUMP JUMPDEST PUSH1 0x1 JUMPDEST SWAP6 POP PUSH2 0xCC9 DUP13 PUSH1 0xA0 PUSH4 0xFFFFFFFF PUSH2 0x1B70 AND JUMP JUMPDEST SWAP5 POP PUSH2 0xCDC DUP13 PUSH1 0xC0 PUSH4 0xFFFFFFFF PUSH2 0x1C16 AND JUMP JUMPDEST SWAP4 POP PUSH2 0xCEF DUP13 PUSH1 0xE0 PUSH4 0xFFFFFFFF PUSH2 0x1C16 AND JUMP JUMPDEST SWAP3 POP PUSH2 0xD03 DUP13 PUSH2 0x100 PUSH4 0xFFFFFFFF PUSH2 0x1C16 AND JUMP JUMPDEST SWAP2 POP PUSH2 0xD17 DUP13 PUSH2 0x120 PUSH4 0xFFFFFFFF PUSH2 0x1C16 AND JUMP JUMPDEST SWAP1 POP PUSH2 0x180 PUSH1 0x40 MLOAD SWAP1 DUP2 ADD PUSH1 0x40 MSTORE DUP1 DUP12 PUSH20 0xFFFFFFFFFFFFFFFFFFFFFFFFFFFFFFFFFFFFFFFF AND DUP2 MSTORE PUSH1 0x20 ADD DUP11 PUSH20 0xFFFFFFFFFFFFFFFFFFFFFFFFFFFFFFFFFFFFFFFF AND DUP2 MSTORE PUSH1 0x20 ADD DUP10 PUSH20 0xFFFFFFFFFFFFFFFFFFFFFFFFFFFFFFFFFFFFFFFF AND DUP2 MSTORE PUSH1 0x20 ADD DUP9 PUSH20 0xFFFFFFFFFFFFFFFFFFFFFFFFFFFFFFFFFFFFFFFF AND DUP2 MSTORE PUSH1 0x20 ADD DUP8 PUSH1 0x1 DUP2 GT ISZERO PUSH2 0xDA2 JUMPI INVALID JUMPDEST DUP2 MSTORE PUSH1 0x20 ADD DUP7 DUP2 MSTORE PUSH1 0x20 ADD DUP6 DUP2 MSTORE PUSH1 0x20 ADD DUP5 DUP2 MSTORE PUSH1 0x20 ADD DUP4 DUP2 MSTORE PUSH1 0x20 ADD PUSH1 0x0 DUP2 MSTORE PUSH1 0x20 ADD DUP3 DUP2 MSTORE PUSH1 0x20 ADD PUSH1 0x0 PUSH1 0x3 DUP2 GT ISZERO PUSH2 0xDD9 JUMPI INVALID JUMPDEST SWAP1 MSTORE SWAP13 SWAP12 POP POP POP POP POP POP POP POP POP POP POP POP JUMP JUMPDEST PUSH1 0x0 PUSH1 0x60 DUP3 PUSH1 0x0 ADD MLOAD DUP4 PUSH1 0x20 ADD MLOAD DUP5 PUSH1 0x40 ADD MLOAD DUP6 PUSH1 0x60 ADD MLOAD DUP7 PUSH1 0x80 ADD MLOAD DUP8 PUSH1 0xA0 ADD MLOAD DUP9 PUSH2 0x140 ADD MLOAD PUSH1 0x40 MLOAD PUSH1 0x20 ADD DUP1 DUP9 PUSH20 0xFFFFFFFFFFFFFFFFFFFFFFFFFFFFFFFFFFFFFFFF AND PUSH20 0xFFFFFFFFFFFFFFFFFFFFFFFFFFFFFFFFFFFFFFFF AND PUSH13 0x1000000000000000000000000 MUL DUP2 MSTORE PUSH1 0x14 ADD DUP8 PUSH20 0xFFFFFFFFFFFFFFFFFFFFFFFFFFFFFFFFFFFFFFFF AND PUSH20 0xFFFFFFFFFFFFFFFFFFFFFFFFFFFFFFFFFFFFFFFF AND PUSH13 0x1000000000000000000000000 MUL DUP2 MSTORE PUSH1 0x14 ADD DUP7 PUSH20 0xFFFFFFFFFFFFFFFFFFFFFFFFFFFFFFFFFFFFFFFF AND PUSH20 0xFFFFFFFFFFFFFFFFFFFFFFFFFFFFFFFFFFFFFFFF AND PUSH13 0x1000000000000000000000000 MUL DUP2 MSTORE PUSH1 0x14 ADD DUP6 PUSH20 0xFFFFFFFFFFFFFFFFFFFFFFFFFFFFFFFFFFFFFFFF AND PUSH20 0xFFFFFFFFFFFFFFFFFFFFFFFFFFFFFFFFFFFFFFFF AND PUSH13 0x1000000000000000000000000 MUL DUP2 MSTORE PUSH1 0x14 ADD DUP5 PUSH1 0x1 DUP2 GT ISZERO PUSH2 0xF2A JUMPI INVALID JUMPDEST PUSH1 0xFF AND PUSH32 0x100000000000000000000000000000000000000000000000000000000000000 MUL DUP2 MSTORE PUSH1 0x1 ADD DUP4 DUP2 MSTORE PUSH1 0x20 ADD DUP3 DUP2 MSTORE PUSH1 0x20 ADD SWAP8 POP POP POP POP POP POP POP POP PUSH1 0x40 MLOAD PUSH1 0x20 DUP2 DUP4 SUB SUB DUP2 MSTORE SWAP1 PUSH1 0x40 MSTORE SWAP1 POP DUP1 PUSH1 0x40 MLOAD DUP1 DUP3 DUP1 MLOAD SWAP1 PUSH1 0x20 ADD SWAP1 DUP1 DUP4 DUP4 JUMPDEST PUSH1 0x20 DUP4 LT PUSH2 0xFC8 JUMPI DUP1 MLOAD DUP3 MSTORE PUSH32 0xFFFFFFFFFFFFFFFFFFFFFFFFFFFFFFFFFFFFFFFFFFFFFFFFFFFFFFFFFFFFFFE0 SWAP1 SWAP3 ADD SWAP2 PUSH1 0x20 SWAP2 DUP3 ADD SWAP2 ADD PUSH2 0xF8B JUMP JUMPDEST MLOAD DUP2 MLOAD PUSH1 0x20 SWAP4 SWAP1 SWAP4 SUB PUSH2 0x100 EXP PUSH32 0xFFFFFFFFFFFFFFFFFFFFFFFFFFFFFFFFFFFFFFFFFFFFFFFFFFFFFFFFFFFFFFFF ADD DUP1 NOT SWAP1 SWAP2 AND SWAP3 AND SWAP2 SWAP1 SWAP2 OR SWAP1 MSTORE PUSH1 0x40 MLOAD SWAP3 ADD DUP3 SWAP1 SUB SWAP1 SWAP2 KECCAK256 SWAP7 SWAP6 POP POP POP POP POP POP JUMP JUMPDEST PUSH1 0x0 PUSH1 0x1 PUSH1 0x0 DUP4 DUP2 MSTORE PUSH1 0x3 PUSH1 0x20 DUP2 SWAP1 MSTORE PUSH1 0x40 SWAP1 SWAP2 KECCAK256 PUSH1 0xA ADD SLOAD PUSH1 0xFF AND SWAP1 DUP2 GT ISZERO PUSH2 0x103F JUMPI INVALID JUMPDEST EQ SWAP3 SWAP2 POP POP JUMP JUMPDEST PUSH1 0x40 DUP1 MLOAD PUSH32 0x23B872DD00000000000000000000000000000000000000000000000000000000 DUP2 MSTORE PUSH20 0xFFFFFFFFFFFFFFFFFFFFFFFFFFFFFFFFFFFFFFFF DUP6 DUP2 AND PUSH1 0x4 DUP4 ADD MSTORE DUP5 DUP2 AND PUSH1 0x24 DUP4 ADD MSTORE PUSH1 0x44 DUP3 ADD DUP5 SWAP1 MSTORE SWAP2 MLOAD SWAP2 DUP7 AND SWAP2 PUSH4 0x23B872DD SWAP2 PUSH1 0x64 DUP1 DUP3 ADD SWAP3 PUSH1 0x20 SWAP3 SWAP1 SWAP2 SWAP1 DUP3 SWAP1 SUB ADD DUP2 PUSH1 0x0 DUP8 DUP1 EXTCODESIZE ISZERO DUP1 ISZERO PUSH2 0x10C7 JUMPI PUSH1 0x0 DUP1 REVERT JUMPDEST POP GAS CALL ISZERO DUP1 ISZERO PUSH2 0x10DB JUMPI RETURNDATASIZE PUSH1 0x0 DUP1 RETURNDATACOPY RETURNDATASIZE PUSH1 0x0 REVERT JUMPDEST POP POP POP POP PUSH1 0x40 MLOAD RETURNDATASIZE PUSH1 0x20 DUP2 LT ISZERO PUSH2 0x10F1 JUMPI PUSH1 0x0 DUP1 REVERT JUMPDEST POP MLOAD ISZERO ISZERO PUSH2 0x1160 JUMPI PUSH1 0x40 DUP1 MLOAD PUSH32 0x8C379A000000000000000000000000000000000000000000000000000000000 DUP2 MSTORE PUSH1 0x20 PUSH1 0x4 DUP3 ADD MSTORE PUSH1 0x1E PUSH1 0x24 DUP3 ADD MSTORE PUSH32 0x554E41424C455F544F5F5452414E534645525F45524332305F544F4B454E0000 PUSH1 0x44 DUP3 ADD MSTORE SWAP1 MLOAD SWAP1 DUP2 SWAP1 SUB PUSH1 0x64 ADD SWAP1 REVERT JUMPDEST POP POP POP POP JUMP JUMPDEST PUSH1 0x0 PUSH2 0x1170 PUSH2 0x1C4C JUMP JUMPDEST PUSH20 0xFFFFFFFFFFFFFFFFFFFFFFFFFFFFFFFFFFFFFFFF DUP12 AND ISZERO DUP1 ISZERO SWAP1 PUSH2 0x11AA JUMPI POP PUSH20 0xFFFFFFFFFFFFFFFFFFFFFFFFFFFFFFFFFFFFFFFF DUP11 AND ISZERO ISZERO JUMPDEST DUP1 ISZERO PUSH2 0x11E2 JUMPI POP DUP10 PUSH20 0xFFFFFFFFFFFFFFFFFFFFFFFFFFFFFFFFFFFFFFFF AND DUP12 PUSH20 0xFFFFFFFFFFFFFFFFFFFFFFFFFFFFFFFFFFFFFFFF AND EQ ISZERO JUMPDEST ISZERO ISZERO PUSH2 0x124F JUMPI PUSH1 0x40 DUP1 MLOAD PUSH32 0x8C379A000000000000000000000000000000000000000000000000000000000 DUP2 MSTORE PUSH1 0x20 PUSH1 0x4 DUP3 ADD MSTORE PUSH1 0x1D PUSH1 0x24 DUP3 ADD MSTORE PUSH32 0x45524332305F544F4B454E5F4144445245535345535F494E56414C4944000000 PUSH1 0x44 DUP3 ADD MSTORE SWAP1 MLOAD SWAP1 DUP2 SWAP1 SUB PUSH1 0x64 ADD SWAP1 REVERT JUMPDEST PUSH20 0xFFFFFFFFFFFFFFFFFFFFFFFFFFFFFFFFFFFFFFFF DUP10 AND ISZERO DUP1 ISZERO SWAP1 PUSH2 0x1289 JUMPI POP PUSH20 0xFFFFFFFFFFFFFFFFFFFFFFFFFFFFFFFFFFFFFFFF DUP9 AND ISZERO ISZERO JUMPDEST DUP1 ISZERO PUSH2 0x12C1 JUMPI POP DUP8 PUSH20 0xFFFFFFFFFFFFFFFFFFFFFFFFFFFFFFFFFFFFFFFF AND DUP10 PUSH20 0xFFFFFFFFFFFFFFFFFFFFFFFFFFFFFFFFFFFFFFFF AND EQ ISZERO JUMPDEST ISZERO ISZERO PUSH2 0x132E JUMPI PUSH1 0x40 DUP1 MLOAD PUSH32 0x8C379A000000000000000000000000000000000000000000000000000000000 DUP2 MSTORE PUSH1 0x20 PUSH1 0x4 DUP3 ADD MSTORE PUSH1 0x18 PUSH1 0x24 DUP3 ADD MSTORE PUSH32 0x5452414445525F4144445245535345535F494E56414C49440000000000000000 PUSH1 0x44 DUP3 ADD MSTORE SWAP1 MLOAD SWAP1 DUP2 SWAP1 SUB PUSH1 0x64 ADD SWAP1 REVERT JUMPDEST PUSH1 0x0 DUP8 PUSH1 0x1 DUP2 GT ISZERO PUSH2 0x133C JUMPI INVALID JUMPDEST EQ DUP1 PUSH2 0x1353 JUMPI POP PUSH1 0x1 DUP8 PUSH1 0x1 DUP2 GT ISZERO PUSH2 0x1351 JUMPI INVALID JUMPDEST EQ JUMPDEST ISZERO ISZERO PUSH2 0x13C0 JUMPI PUSH1 0x40 DUP1 MLOAD PUSH32 0x8C379A000000000000000000000000000000000000000000000000000000000 DUP2 MSTORE PUSH1 0x20 PUSH1 0x4 DUP3 ADD MSTORE PUSH1 0x12 PUSH1 0x24 DUP3 ADD MSTORE PUSH32 0x54524144455F545950455F494E56414C49440000000000000000000000000000 PUSH1 0x44 DUP3 ADD MSTORE SWAP1 MLOAD SWAP1 DUP2 SWAP1 SUB PUSH1 0x64 ADD SWAP1 REVERT JUMPDEST PUSH2 0x180 PUSH1 0x40 MLOAD SWAP1 DUP2 ADD PUSH1 0x40 MSTORE DUP1 DUP13 PUSH20 0xFFFFFFFFFFFFFFFFFFFFFFFFFFFFFFFFFFFFFFFF AND DUP2 MSTORE PUSH1 0x20 ADD DUP12 PUSH20 0xFFFFFFFFFFFFFFFFFFFFFFFFFFFFFFFFFFFFFFFF AND DUP2 MSTORE PUSH1 0x20 ADD DUP11 PUSH20 0xFFFFFFFFFFFFFFFFFFFFFFFFFFFFFFFFFFFFFFFF AND DUP2 MSTORE PUSH1 0x20 ADD DUP10 PUSH20 0xFFFFFFFFFFFFFFFFFFFFFFFFFFFFFFFFFFFFFFFF AND DUP2 MSTORE PUSH1 0x20 ADD DUP9 PUSH1 0x1 DUP2 GT ISZERO PUSH2 0x1449 JUMPI INVALID JUMPDEST DUP2 MSTORE PUSH1 0x20 ADD DUP8 DUP2 MSTORE PUSH1 0x20 ADD DUP7 DUP2 MSTORE PUSH1 0x20 ADD DUP6 DUP2 MSTORE PUSH1 0x20 ADD DUP5 DUP2 MSTORE PUSH1 0x20 ADD PUSH1 0x0 DUP2 MSTORE PUSH1 0x20 ADD TIMESTAMP DUP2 MSTORE PUSH1 0x20 ADD PUSH1 0x0 PUSH1 0x3 DUP2 GT ISZERO PUSH2 0x1480 JUMPI INVALID JUMPDEST SWAP1 MSTORE SWAP1 POP PUSH2 0x148D DUP2 PUSH2 0xDEB JUMP JUMPDEST PUSH1 0x0 DUP2 DUP2 MSTORE PUSH1 0x3 PUSH1 0x20 MSTORE PUSH1 0x40 SWAP1 KECCAK256 PUSH1 0x9 ADD SLOAD SWAP1 SWAP3 POP ISZERO PUSH2 0x150E JUMPI PUSH1 0x40 DUP1 MLOAD PUSH32 0x8C379A000000000000000000000000000000000000000000000000000000000 DUP2 MSTORE PUSH1 0x20 PUSH1 0x4 DUP3 ADD MSTORE PUSH1 0x17 PUSH1 0x24 DUP3 ADD MSTORE PUSH32 0x504F534954494F4E5F414C52454144595F4F50454E4544000000000000000000 PUSH1 0x44 DUP3 ADD MSTORE SWAP1 MLOAD SWAP1 DUP2 SWAP1 SUB PUSH1 0x64 ADD SWAP1 REVERT JUMPDEST PUSH1 0x0 DUP3 DUP2 MSTORE PUSH1 0x3 PUSH1 0x20 DUP2 DUP2 MSTORE PUSH1 0x40 SWAP3 DUP4 SWAP1 KECCAK256 DUP5 MLOAD DUP2 SLOAD PUSH32 0xFFFFFFFFFFFFFFFFFFFFFFFF0000000000000000000000000000000000000000 SWAP1 DUP2 AND PUSH20 0xFFFFFFFFFFFFFFFFFFFFFFFFFFFFFFFFFFFFFFFF SWAP3 DUP4 AND OR DUP4 SSTORE SWAP3 DUP7 ADD MLOAD PUSH1 0x1 DUP1 DUP5 ADD DUP1 SLOAD DUP7 AND SWAP3 DUP5 AND SWAP3 SWAP1 SWAP3 OR SWAP1 SWAP2 SSTORE SWAP5 DUP7 ADD MLOAD PUSH1 0x2 DUP4 ADD DUP1 SLOAD DUP6 AND SWAP2 DUP4 AND SWAP2 SWAP1 SWAP2 OR SWAP1 SSTORE PUSH1 0x60 DUP7 ADD MLOAD SWAP4 DUP3 ADD DUP1 SLOAD SWAP1 SWAP4 AND SWAP4 AND SWAP3 SWAP1 SWAP3 OR DUP1 DUP3 SSTORE PUSH1 0x80 DUP6 ADD MLOAD DUP6 SWAP5 SWAP1 SWAP3 SWAP2 PUSH32 0xFFFFFFFFFFFFFFFFFFFFFF00FFFFFFFFFFFFFFFFFFFFFFFFFFFFFFFFFFFFFFFF AND SWAP1 PUSH21 0x10000000000000000000000000000000000000000 SWAP1 DUP5 SWAP1 DUP2 GT ISZERO PUSH2 0x15F4 JUMPI INVALID JUMPDEST MUL OR SWAP1 SSTORE POP PUSH1 0xA0 DUP3 ADD MLOAD PUSH1 0x4 DUP3 ADD SSTORE PUSH1 0xC0 DUP3 ADD MLOAD PUSH1 0x5 DUP3 ADD SSTORE PUSH1 0xE0 DUP3 ADD MLOAD PUSH1 0x6 DUP3 ADD SSTORE PUSH2 0x100 DUP3 ADD MLOAD PUSH1 0x7 DUP3 ADD SSTORE PUSH2 0x120 DUP3 ADD MLOAD PUSH1 0x8 DUP3 ADD SSTORE PUSH2 0x140 DUP3 ADD MLOAD PUSH1 0x9 DUP3 ADD SSTORE PUSH2 0x160 DUP3 ADD MLOAD PUSH1 0xA DUP3 ADD DUP1 SLOAD PUSH32 0xFFFFFFFFFFFFFFFFFFFFFFFFFFFFFFFFFFFFFFFFFFFFFFFFFFFFFFFFFFFFFF00 AND PUSH1 0x1 DUP4 PUSH1 0x3 DUP2 GT ISZERO PUSH2 0x1674 JUMPI INVALID JUMPDEST MUL OR SWAP1 SSTORE POP SWAP1 POP POP DUP7 PUSH1 0x1 DUP2 GT ISZERO PUSH2 0x1688 JUMPI INVALID JUMPDEST PUSH1 0x40 DUP1 MLOAD DUP5 DUP2 MSTORE PUSH20 0xFFFFFFFFFFFFFFFFFFFFFFFFFFFFFFFFFFFFFFFF DUP15 DUP2 AND PUSH1 0x20 DUP4 ADD MSTORE DUP14 DUP2 AND DUP3 DUP5 ADD MSTORE PUSH1 0x60 DUP3 ADD DUP11 SWAP1 MSTORE PUSH1 0x80 DUP3 ADD DUP10 SWAP1 MSTORE PUSH1 0xA0 DUP3 ADD DUP9 SWAP1 MSTORE PUSH1 0xC0 DUP3 ADD DUP8 SWAP1 MSTORE SWAP2 MLOAD DUP3 DUP13 AND SWAP3 DUP14 AND SWAP2 PUSH32 0x9081AF4372FD7C22014980982F4C3A122105334CE30A7F809691CB380F8F8965 SWAP2 SWAP1 DUP2 SWAP1 SUB PUSH1 0xE0 ADD SWAP1 LOG4 POP SWAP10 SWAP9 POP POP POP POP POP POP POP POP POP JUMP JUMPDEST PUSH1 0x0 DUP5 DUP2 MSTORE PUSH1 0x3 PUSH1 0x20 MSTORE PUSH1 0x40 DUP2 KECCAK256 SWAP1 PUSH1 0x1 PUSH1 0xA DUP4 ADD SLOAD PUSH1 0xFF AND PUSH1 0x3 DUP2 GT ISZERO PUSH2 0x1735 JUMPI INVALID JUMPDEST EQ PUSH2 0x17A1 JUMPI PUSH1 0x40 DUP1 MLOAD PUSH32 0x8C379A000000000000000000000000000000000000000000000000000000000 DUP2 MSTORE PUSH1 0x20 PUSH1 0x4 DUP3 ADD MSTORE PUSH1 0x16 PUSH1 0x24 DUP3 ADD MSTORE PUSH32 0x504F534954494F4E5F49535F4E4F545F4F50454E454400000000000000000000 PUSH1 0x44 DUP3 ADD MSTORE SWAP1 MLOAD SWAP1 DUP2 SWAP1 SUB PUSH1 0x64 ADD SWAP1 REVERT JUMPDEST PUSH20 0xFFFFFFFFFFFFFFFFFFFFFFFFFFFFFFFFFFFFFFFF DUP6 AND ISZERO DUP1 ISZERO SWAP1 PUSH2 0x17DB JUMPI POP PUSH20 0xFFFFFFFFFFFFFFFFFFFFFFFFFFFFFFFFFFFFFFFF DUP5 AND ISZERO ISZERO JUMPDEST DUP1 ISZERO PUSH2 0x1813 JUMPI POP DUP4 PUSH20 0xFFFFFFFFFFFFFFFFFFFFFFFFFFFFFFFFFFFFFFFF AND DUP6 PUSH20 0xFFFFFFFFFFFFFFFFFFFFFFFFFFFFFFFFFFFFFFFF AND EQ ISZERO JUMPDEST ISZERO ISZERO PUSH2 0x1880 JUMPI PUSH1 0x40 DUP1 MLOAD PUSH32 0x8C379A000000000000000000000000000000000000000000000000000000000 DUP2 MSTORE PUSH1 0x20 PUSH1 0x4 DUP3 ADD MSTORE PUSH1 0x18 PUSH1 0x24 DUP3 ADD MSTORE PUSH32 0x5452414445525F4144445245535345535F494E56414C49440000000000000000 PUSH1 0x44 DUP3 ADD MSTORE SWAP1 MLOAD SWAP1 DUP2 SWAP1 SUB PUSH1 0x64 ADD SWAP1 REVERT JUMPDEST PUSH2 0x1889 DUP4 PUSH2 0x1C22 JUMP JUMPDEST SWAP1 POP PUSH1 0x0 PUSH1 0x3 DUP4 ADD SLOAD PUSH21 0x10000000000000000000000000000000000000000 SWAP1 DIV PUSH1 0xFF AND PUSH1 0x1 DUP2 GT ISZERO PUSH2 0x18B8 JUMPI INVALID JUMPDEST EQ ISZERO PUSH2 0x18C3 JUMPI PUSH2 0x1962 JUMP JUMPDEST PUSH1 0x1 PUSH1 0x3 DUP4 ADD SLOAD PUSH21 0x10000000000000000000000000000000000000000 SWAP1 DIV PUSH1 0xFF AND PUSH1 0x1 DUP2 GT ISZERO PUSH2 0x18F0 JUMPI INVALID JUMPDEST EQ ISZERO PUSH2 0x18FB JUMPI PUSH2 0x1962 JUMP JUMPDEST PUSH1 0x40 DUP1 MLOAD PUSH32 0x8C379A000000000000000000000000000000000000000000000000000000000 DUP2 MSTORE PUSH1 0x20 PUSH1 0x4 DUP3 ADD MSTORE PUSH1 0x1B PUSH1 0x24 DUP3 ADD MSTORE PUSH32 0x504F534954494F4E5F54524144455F545950455F494E56414C49440000000000 PUSH1 0x44 DUP3 ADD MSTORE SWAP1 MLOAD SWAP1 DUP2 SWAP1 SUB PUSH1 0x64 ADD SWAP1 REVERT JUMPDEST PUSH1 0x40 DUP1 MLOAD DUP8 DUP2 MSTORE PUSH1 0x20 DUP2 ADD DUP4 SWAP1 MSTORE DUP2 MLOAD PUSH20 0xFFFFFFFFFFFFFFFFFFFFFFFFFFFFFFFFFFFFFFFF DUP1 DUP9 AND SWAP4 SWAP1 DUP10 AND SWAP3 PUSH32 0xCD2EBF70BDF4DEC83BC8BB4634D2077DD87B0A3AA452E45D4599B9114A1960F6 SWAP3 SWAP1 DUP2 SWAP1 SUB SWAP1 SWAP2 ADD SWAP1 LOG3 POP POP POP POP POP POP JUMP JUMPDEST PUSH1 0x0 DUP3 DUP3 GT ISZERO PUSH2 0x1A33 JUMPI PUSH1 0x40 DUP1 MLOAD PUSH32 0x8C379A000000000000000000000000000000000000000000000000000000000 DUP2 MSTORE PUSH1 0x20 PUSH1 0x4 DUP3 ADD MSTORE PUSH1 0x11 PUSH1 0x24 DUP3 ADD MSTORE PUSH32 0x55494E543235365F554E444552464C4F57000000000000000000000000000000 PUSH1 0x44 DUP3 ADD MSTORE SWAP1 MLOAD SWAP1 DUP2 SWAP1 SUB PUSH1 0x64 ADD SWAP1 REVERT JUMPDEST POP SWAP1 SUB SWAP1 JUMP JUMPDEST PUSH1 0x0 DUP3 DUP3 ADD DUP4 DUP2 LT ISZERO PUSH2 0x1AAD JUMPI PUSH1 0x40 DUP1 MLOAD PUSH32 0x8C379A000000000000000000000000000000000000000000000000000000000 DUP2 MSTORE PUSH1 0x20 PUSH1 0x4 DUP3 ADD MSTORE PUSH1 0x10 PUSH1 0x24 DUP3 ADD MSTORE PUSH32 0x55494E543235365F4F564552464C4F5700000000000000000000000000000000 PUSH1 0x44 DUP3 ADD MSTORE SWAP1 MLOAD SWAP1 DUP2 SWAP1 SUB PUSH1 0x64 ADD SWAP1 REVERT JUMPDEST SWAP4 SWAP3 POP POP POP JUMP JUMPDEST PUSH1 0x0 DUP2 PUSH1 0x14 ADD DUP4 MLOAD LT ISZERO ISZERO ISZERO PUSH2 0x1B51 JUMPI PUSH1 0x40 DUP1 MLOAD PUSH32 0x8C379A000000000000000000000000000000000000000000000000000000000 DUP2 MSTORE PUSH1 0x20 PUSH1 0x4 DUP3 ADD MSTORE PUSH1 0x26 PUSH1 0x24 DUP3 ADD MSTORE PUSH32 0x475245415445525F4F525F455155414C5F544F5F32305F4C454E4754485F5245 PUSH1 0x44 DUP3 ADD MSTORE PUSH32 0x5155495245440000000000000000000000000000000000000000000000000000 PUSH1 0x64 DUP3 ADD MSTORE SWAP1 MLOAD SWAP1 DUP2 SWAP1 SUB PUSH1 0x84 ADD SWAP1 REVERT JUMPDEST POP ADD PUSH1 0x14 ADD MLOAD PUSH20 0xFFFFFFFFFFFFFFFFFFFFFFFFFFFFFFFFFFFFFFFF AND SWAP1 JUMP JUMPDEST PUSH1 0x0 DUP2 PUSH1 0x20 ADD DUP4 MLOAD LT ISZERO ISZERO ISZERO PUSH2 0x1C0D JUMPI PUSH1 0x40 DUP1 MLOAD PUSH32 0x8C379A000000000000000000000000000000000000000000000000000000000 DUP2 MSTORE PUSH1 0x20 PUSH1 0x4 DUP3 ADD MSTORE PUSH1 0x26 PUSH1 0x24 DUP3 ADD MSTORE PUSH32 0x475245415445525F4F525F455155414C5F544F5F33325F4C454E4754485F5245 PUSH1 0x44 DUP3 ADD MSTORE PUSH32 0x5155495245440000000000000000000000000000000000000000000000000000 PUSH1 0x64 DUP3 ADD MSTORE SWAP1 MLOAD SWAP1 DUP2 SWAP1 SUB PUSH1 0x84 ADD SWAP1 REVERT JUMPDEST POP ADD PUSH1 0x20 ADD MLOAD SWAP1 JUMP JUMPDEST PUSH1 0x0 PUSH2 0x1AAD DUP4 DUP4 PUSH2 0x1B70 JUMP JUMPDEST PUSH1 0x0 PUSH1 0x20 DUP3 MLOAD LT PUSH2 0x1C43 JUMPI PUSH2 0x1C3E DUP3 PUSH1 0x0 PUSH4 0xFFFFFFFF PUSH2 0x1B70 AND JUMP JUMPDEST PUSH2 0x1C46 JUMP JUMPDEST PUSH1 0x0 JUMPDEST SWAP3 SWAP2 POP POP JUMP JUMPDEST PUSH1 0x40 DUP1 MLOAD PUSH2 0x180 DUP2 ADD DUP3 MSTORE PUSH1 0x0 DUP1 DUP3 MSTORE PUSH1 0x20 DUP3 ADD DUP2 SWAP1 MSTORE SWAP2 DUP2 ADD DUP3 SWAP1 MSTORE PUSH1 0x60 DUP2 ADD DUP3 SWAP1 MSTORE SWAP1 PUSH1 0x80 DUP3 ADD SWAP1 DUP2 MSTORE PUSH1 0x20 ADD PUSH1 0x0 DUP2 MSTORE PUSH1 0x20 ADD PUSH1 0x0 DUP2 MSTORE PUSH1 0x20 ADD PUSH1 0x0 DUP2 MSTORE PUSH1 0x20 ADD PUSH1 0x0 DUP2 MSTORE PUSH1 0x20 ADD PUSH1 0x0 DUP2 MSTORE PUSH1 0x20 ADD PUSH1 0x0 DUP2 MSTORE PUSH1 0x20 ADD PUSH1 0x0 PUSH1 0x3 DUP2 GT ISZERO PUSH2 0x1CB2 JUMPI INVALID JUMPDEST SWAP1 MSTORE SWAP1 JUMP STOP LOG1 PUSH6 0x627A7A723058 KECCAK256 DIV 0x2f 0x4a 0xd9 0x24 LOG3 0xc8 SWAP7 GASPRICE CALLER 0xb6 0xd9 MLOAD BALANCE PUSH25 0x6304B1A5ED5262ED791A9B59C0B4B760330029000000000000 "
			}
		}
	},
	"sourceTreeHashHex": "0x3c96d33680787a9b46bf0635de1bbf37481b75618401446070d49b920661f8e2",
	"compiler": {
		"name": "solc",
		"version": "0.4.25+commit.59dbf8f1.Linux.g++",
		"settings": {
			"optimizer": {
				"enabled": true,
				"runs": 1000000
			},
			"outputSelection": {
				"*": {
					"*": [
						"abi",
						"evm.bytecode.object",
						"evm.bytecode.sourceMap",
						"evm.deployedBytecode.object",
						"evm.deployedBytecode.sourceMap"
					]
				}
			},
			"remappings": [
				"@0x/contracts-utils=/Users/wardencliffe/Documents/Projects/Personal/0x-monorepo-mirror/node_modules/@0x/contracts-utils"
			]
		}
	}
}